:1000000000800020291B0000B51A0000B51A00006E
:1000100000000000000000000000000000000000E0
:10002000000000000000000000000000B51A000001
:100030000000000000000000B51A00007D1B000059
:10004000B51A0000B51A0000B51A0000B51A000074
:10005000C11D0000B51A0000B51A0000151B0000F4
:10006000B51A0000011A000015010000B51A0000C1
:1000700009070000B51A0000111A0000B51A0000A7
:10008000B51A0000B51A0000B51A0000B51A000034
:1000900000000000B51A0000B51A0000B51A0000F3
:1000A000B51A0000B51A0000B51A0000B51A000014
:1000B0000000000010B5064C2378002B07D1054B3B
:1000C000002B02D0044800E000BF0123237010BDC4
:1000D00030030020000000001470000008B5084B39
:1000E000002B03D00748084900E000BF0748036819
:1000F000002B03D0064B002B00D0984708BDC0460C
:1001000000000000147000003403002028030020C9
:100110000000000008B5024802F0B8FD08BDC04666
:10012000B0030020F7B501F037FD394B394C1A68A0
:10013000811A394A1268914235D3384D18602368C4
:100140003749013B281C236002F03CF8354F02265A
:10015000381C01F04EFA05F015FF0096021C0B1C2E
:10016000281C02F019F9381C01F062FA05F00AFFA8
:100170000096021C0B1C281C02F00EF9381C01F022
:1001800076FA05F0FFFE0096021C0B1C281C02F0FC
:1001900003F9254D254B2978187801F02FFF2B788E
:1001A000012253402B702368002B01D11E232360B2
:1001B0001F4B1B78002B02D02368013B23601D4C92
:1001C0002378002B08D015481B4901F0FBFF0023C2
:1001D0001420237001F0E6FC184C2378002B08D083
:1001E0000E48174901F0EEFF00231420237001F0A0
:1001F000D9FC144C2378002B08D00848124901F090
:10020000E1FF00231420237001F0CCFCF7BDC046B1
:100210007C0300200C00002004000020B00300201C
:10022000EC63000058030020800300200900002038
:10023000AC0300204C030020F16300004E030020BB
:10024000026400004D0300201364000013B5012177
:1002500049420F4800F0A2FC0E4C0623201C04214A
:10026000032200F073F8201C0B490C4A03F0F6FE41
:1002700000216B220A4801F0B7F801230093002304
:10028000019308490D220B23074802F00BFC13BD14
:1002900084030020500300205703000000000020CA
:1002A00058030020B80C0020B003002038B51E48C9
:1002B0001E4900F0CBF81E4CE121201C490202F03F
:1002C00079FB02210D2001F0C9FE02210B2001F073
:1002D000C5FEC82001F066FC1649201C01F072FF23
:1002E000642001F05FFC0021134801F053FAC8209C
:1002F00001F058FC114B187801F026FD104D01213A
:10030000287801F021FE0F4B2878197801F076FE4D
:10031000C82001F047FC0C49201C01F053FFC82005
:1003200001F040FC38BDC046EC050020801A0600F4
:10033000B0030020296400005803002008000020BA
:1003400009000020800300203B6400000339017194
:100350004271837170477047002070477047F8B54D
:10036000051C0F1C161C0024B44208D02B68395DF4
:100370001B68281C9847002801D00134F4E7201C92
:10038000F8BD7047031CFC33196ADA69914203D047
:100390001B6AC018007E01E0012040427047031C28
:1003A000FC33D8691B6AC01A01D50130FF30704791
:1003B000F7B50193FA239B008360134B8026002539
:1003C00076000833041C0F1C4560291C0092036052
:1003D000321C183005F025FF231C9022FC335200FC
:1003E000DD61A0181D62321C291C05F01AFF87224E
:1003F0009200A3185D60019A9D60009B2761A5751E
:10040000201C23756275FEBD4864000070B50D495F
:10041000041C006902F0A2FA206902F02CF91826E7
:10042000207D331C4343084D0821EB18595601F039
:1004300015FE607D08214643AD19695601F00EFE98
:1004400070BDC046A0860100206A000038B5041CBB
:100450000D1C006902F023F9291C206902F07EFAC4
:10046000206902F008F938BD8A2387229B00920098
:10047000C154831800225A609A6001238375704723
:10048000031CFC335A6810B501329C68D2B2A242F8
:1004900002D05C6801555A6010BDF7B50193002386
:1004A000041C151C181C9A4231D0221CFC32D3614A
:1004B00020691362012202F025F9002825D0206965
:1004C00002F08FF9271C1837011C381CFFF7D8FFE2
:1004D00001262069AE420ED002F0F4F80221206914
:1004E00002F0FAF8206902F07CF9011C381CFFF7D1
:1004F000C7FF0136EDE702F0DCF8019B002B05D0C9
:100500002069032102F0E8F800E0051CE8B2FEBD16
:1005100008B50123FFF7C1FF08BD10B5827D002398
:100520009A420DD08724A4000219546892680134BD
:10053000E4B2944204D02130FF30FFF7A1FF012341
:10054000181C10BD031CFC3399685A68914206D0F0
:100550009A68805C9A680132D2B29A6001E0012008
:100560004042704770B500228A2382759B00041CAC
:100570000E1CC15C006902F0C5F8002805D1206995
:10058000032102F0A9F8022523E090235B00E01884
:1005900087239B00E21851689368CB1A01D5013379
:1005A000FF33002B0ED02569FFF7CCFFC1B2281C0A
:1005B00002F0D7F80028E8D12069032102F08CF876
:1005C000032506E01D1C002E03D02069032102F044
:1005D00083F8281C70BD08B50121FFF7C3FF08BDD3
:1005E00008B51830FFF7AEFF08BD38B5041C006928
:1005F00002F0D5F8002800D184E0206902F0DDF88F
:1006000000280ED1206902F0E2F800281FD02069EE
:1006100002F0D8F800281AD0206902F0DDF800288E
:1006200015D1206902F04EF82069032102F054F838
:100630008C239B00E558002D04D02368201C1B69E7
:100640009847A847FC340023E36123625AE02069FD
:1006500002F0BDF8031C2069002B19D002F032F81B
:100660002069032102F038F8206902F0B5F800286B
:1006700048D087229200A31800225A609A60012372
:10068000A3758B239B00E35893423BD0984739E0F6
:1006900002F08EF8002835D0206902F09DF800287D
:1006A00016D087239B00E21851689368CB1A01D5B6
:1006B0000133FF33FF21002B05D090225200A018F8
:1006C000FFF740FFC1B2206902F05CF8A07519E0A5
:1006D000231CFC33DA691B6A0132D2B220699A42C8
:1006E00002D101F0E6FF09E002F07BF8011C201CBA
:1006F0001830FFF7C5FE206901F0E4FF20690321EF
:1007000001F0EAFF38BD000008B50248FFF76DFFB1
:1007100008BDC046EC05002008B503480349142273
:100720001523FFF745FE08BDEC050020B00C0020A6
:1007300070B5457E04AC2488022D09D0032D10D05D
:10074000012D00D08DE00589013DAA1A12B20CE0FE
:100750004589013DAA1A058912B2ED1A691A09B232
:100760007FE04589ED1A691A09B2002A00DABDE076
:100770000826855F954200DCB8E0002902DACB1834
:100780001BB200214089CD1806B2B54201DD431AE3
:100790001BB2002B00DCA9E0C9B2C808544DC0014F
:1007A000281882180720DBB2014020D00820411A07
:1007B0005048C9B2405C8B4203D2CD1AFF262E416D
:1007C0003040012C06D0002C07D0022C09D115781E
:1007D000684005E01578284302E015788543281C19
:1007E00010708B4200D281E05B1ADBB28032072BA3
:1007F00022D9022C0AD1111C181C0D780838ED439F
:10080000C0B20D7080310728F7D80CE0651E694230
:100810004D416D42EDB2101C191C0839C9B205706A
:1008200080300729F9D8191C0839C9B2C908013123
:10083000C901521807210B40002B57D02E49CB5C21
:10084000012C06D0002C07D0022C4FD111784B4040
:1008500005E011780B4302E0117899430B1C1370EB
:1008600044E0002A42DB0A26855F95423EDD0029EE
:1008700002DACB181BB200210089CD1806B2B542AE
:1008800001DD431A1BB2002B30DDD017400F80185A
:10089000C010174DC0012818411807200240012040
:1008A0009040C2B2012C04D0002C0BD0022C1DD1E0
:1008B00013E0013B1BB2581C18D008781043087095
:1008C0000131F6E7D243D2B2013B1BB25E1C0DD020
:1008D0000878104008700131F6E7013B1BB2581C44
:1008E00004D00878504008700131F6E770BDC0466A
:1008F00020000020180000201000002070B5457E68
:1009000004AC2488022D08D0032D0FD0012D5CD11A
:100910000589ED1AAA1A12B20CE00589013D691A7F
:10092000458909B2ED1AAA1A12B24EE04589013D75
:10093000691A09B2002900DABEE00A26855F8D42F5
:1009400000DCB9E0002A02DAD3181BB200220089C9
:10095000D51806B2B54201DD831A1BB2002B00DCAC
:10096000AAE0C817400F4018C010544DC001281805
:1009700082180720014001208840C1B2012C05D017
:10098000002C0DD0022C00D096E015E0013B1BB2EC
:10099000581C00D190E01078084310700132F5E740
:1009A000C943C9B2013B1BB25E1C00D184E0107880
:1009B000084010700132F5E7013B1BB2581C7BD098
:1009C0001078484010700132F6E7002974DB0826E1
:1009D000855F8D4270DD002A02DAD3181BB2002237
:1009E0004089D51806B2B54201DD831A1BB2002B2F
:1009F00062DDD2B2D008314DC0012818411807205D
:100A0000DBB202401FD00820821A2D48D2B2805C8F
:100A1000934203D2D51AFF262E413040012C06D036
:100A2000002C07D0022C09D10D78684005E00D7824
:100A3000284302E00D788543281C087093423BD37D
:100A40009B1ADBB28031072B22D9022C0AD10A1C57
:100A5000181C15780838ED43C0B21570803207288D
:100A6000F7D80CE0651E6A4255416D42EDB2081C94
:100A70001A1C083AD2B205708030072AF9D81A1C1D
:100A8000083AD2B2D2080132D201891807221340A3
:100A9000002B11D00B4AD35C012C06D0002C07D0C0
:100AA000022C09D10A78534005E00A78134302E08A
:100AB0000A789A43131C0B7070BDC04620000020BA
:100AC0001800002010000020F8B5061C0D1C141C96
:100AD0001F1C00295EDB00F074FC85425ADA002CF2
:100AE00058DB301C00F070FC844253DA301C00F0FC
:100AF00066FC022846D13389013B5D1B73892DB208
:100B0000013B1C1B24B206E0012804D13389013BC0
:100B10001B1B2C1C1DB2012F14D0002F21D0022F23
:100B200038D1E3175B0F1B19DB101BB2DB01072267
:100B3000ED181440184B0122A240141C5A5D544079
:100B40005C5527E0E3175B0F1B19DB101BB2DB01C1
:100B5000ED180722104B1440A7405C5D27435F55FA
:100B600018E0E3175B0F1B19DB101BB2DB01072238
:100B7000ED181440084B0122A240141C5A5DA243F8
:100B80005A5507E00328BFD17389013B5B1B251C25
:100B90001CB2C0E7F8BDC0462000002038B52022B6
:100BA0000D1C8021041C00F025FA084BE21C0833C0
:100BB0002360FF23D377E21DD377621DD377221DF5
:100BC000D377A31DDD77201C38BDC04670640000BC
:100BD000437A002B04D18372C372C3600123437232
:100BE000704730B585B0041C02AD006802910392D5
:100BF00001F0F0FC6B79E179227A00932068002300
:100C000001F088FE29792068029A01F0B3FC20687F
:100C100001F0D6FC05B030BD70B5041C1826FFF7F6
:100C2000D7FF2079331C43430D4D0821EB1859564B
:100C300001F014FAA079331C43430821EB185956EC
:100C400001F00CFA607908214643AD19695601F0AC
:100C500005FA044B201C06CBFFF7C3FF70BDC0464E
:100C6000206A00002008002008B50068002901D192
:100C7000012100E0002101F0B7FC08BD08B50068C3
:100C8000032900D8042101F0C3FC08BD08B50068A1
:100C900001F0D6FC08BD0000094B0A4A0A491A6057
:100CA00000225A711A71094B196016211971182105
:100CB00099711721597101215A72D9711A727047AD
:100CC0002008002000093D00C00C0020280800205A
:100CD000F0B587B01E1C0CAB071C151C00201B5E5A
:100CE0000DAA12880C1C591B0492CA17891851406E
:100CF000321BD01712184240914208DD321C0121EC
:100D00001E1C131C221C01912C1C151C01E000222E
:100D10000192B44205DD2A1C1D1C131C221C341C2C
:100D2000161C321B92B202925A1BD117501848401F
:100D30000590029802B2D10F8A18521092B2009216
:100D40009D4202DA012103911FE0154A03921CE043
:100D500001983B6800281BD09969381C8C46221CDE
:100D6000291C049BE04700980599431A9BB29AB24C
:100D7000009212B2002A06DA029903985B182D1825
:100D80009BB22DB20093013424B2B442E0DD05E001
:100D90009A69381C9446211C2A1CE2E707B0F0BD72
:100DA000FFFF0000704710B504682469A04710BD1C
:100DB00037B506AC258804680095A46BA04737BDFD
:100DC00037B506AC258804680095E46BA04737BDAD
:100DD00073B506AC0025665F07AC258804680096ED
:100DE0000195246CA04773BD7047F0B585B01F1CFA
:100DF0000AAB1B88161C03930368013F5B69041C44
:100E00000D1CBF199847039A23683FB201920097BF
:100E10009F6A201C291C321C2B1CB8472368201CED
:100E2000DB6A984705B0F0BDF0B585B01F1C0AAB72
:100E30001B88041C039303680E1C5B69151C9847F0
:100E4000039922687B1E019100959B19976A201CCB
:100E5000311C2A1C1BB2B8472368201CDB6A984748
:100E600005B0F0BDF0B587B003930CAB0E1C171C9A
:100E70000022995E0DAB1B88049105930368041C46
:100E80005B699847351C039BF218236895420BDA7F
:100E90000599201C00911A6A291C9446049B3A1C4F
:100EA0000135E0472DB2EEE7DB6A201C984707B01A
:100EB000F0BD37B50C24035F0E25445F0268019135
:100EC00000940021146C0A1CA04737BDF0B585B012
:100ED00002930AAB0E1C00215F5E0BAB1B88151C36
:100EE0000393029B041C02689E420BD1BD4202DDAB
:100EF0002B1C3D1C1F1C03997B1C5B1B00911BB210
:100F0000976B0EE0BD4211D1029B9E4202DD331C65
:100F1000029E0293029B0399013300919B1BD76BA6
:100F20001BB2201C311C2A1CB8470FE0536998479C
:100F3000039A2368019200979F6A201C029B311C30
:100F40002A1CB8472368201CDB6A984705B0F0BD0F
:100F5000F0B585B01F1C0AAB151C0E1C0022995E53
:100F60000BAB1B88039102930368041C5B699847D1
:100F70000299236800915A6A201C9446311C2A1C4D
:100F80003B1CE04702992368039A0091596A013A91
:100F900052198C46201C311C3B1C12B2E047029AAD
:100FA00023680092196A201C8C462A1C311C039B62
:100FB000E047029A2368013F0092BE1931B21F6ACE
:100FC000201C2A1C039BB8472368201CDB6A984717
:100FD00005B0F0BD7047032319404176038942896B
:100FE000012904D0032902D08381C28101E08281DA
:100FF000C381704710B50A4C4281C281012200238F
:101000000834018181815142436004604376038248
:1010100043820276C18281828276C376C36110BD2B
:10102000C8640000F0B595B01E1C1AAB1B88041CE8
:101030000A931BAB1B88069104931CAB1D78C369F4
:101040000992002B00D0B1E00C20235E8B4200DC23
:1010500036E10E21635E934200DC31E106236B43EF
:10106000069AD318002B00DC2AE10998EB00C3187C
:10107000002B00DC24E1E37E002B03D1AF2E01D94D
:101080000136F6B22368201C5B69984705235E434E
:1010900000210F960D930891089A0F9853B2894A30
:1010A00006991218D25C9BB207936B4389B20B92DC
:1010B000099ACB1896B29BB20E93331C08339BB29D
:1010C00005911093371C0C960B9BDB0714D52068F9
:1010D000012D09D1079A059BD118836909B29C4655
:1010E0003AB2201C0A9B17E00E9A33B211932BB22E
:1010F00011B200930A9A19E0049B0A9883421BD00C
:101100002068012D0AD1079A059BD118836909B27D
:101110009C46049B3AB2201CE0470DE00C9B0E9AC3
:101120001BB211B21193049A2BB200930192C269BF
:10113000201C9446119AE0470B9B0C985B080B937C
:1011400001374319109976199BB2BFB2B6B20C930E
:101150008F42B9D1089B0133DBB208930D9B013B51
:10116000DBB20D93002B97D1049A0A9B9A4200D1CF
:10117000A2E02268012D0AD104980599009005315A
:10118000156A09B2201C099A0823A84794E0052192
:101190006943059B049859182BB2ED000190009506
:1011A000D56909B2201C099AA84785E01A7A5968BE
:1011B000B61AF6B21B68F60076183288F0787179A4
:1011C0001193B378B67905920C9312900D910E9607
:1011D000012D06D90E9A4EB253B29BB2B6B2079306
:1011E00002E0002307931E1C2368201C5B696E43EA
:1011F0009847069880B28619B6B2109600260B90D2
:1012000006960496129AF3B2934255D2099B079818
:101210009BB20F9333186B430F99109ACB189BB264
:101220001393089200270698FBB20C991A18D2B2B1
:101230008B423BD2510707D1059B0598119A013388
:10124000125C9BB204920593049843B2002B22DAFD
:101250002068012D11D10D9A0B9B51B259180E9B8C
:1012600079185AB20F9B09B29A188369B2189C4632
:1012700012B2201C0A9BE0470DE0089A139B11B2A2
:101280001BB20A9A03932BB200930192C269201CED
:101290009446039AE047049808994300DBB204930C
:1012A0004B199BB201370893BFB2BCE74318DBB2BE
:1012B00001360693B6B2A5E72368201CDB6A98477F
:1012C00015B0F0BD20650000F0B5C26987B0041C00
:1012D0000B1C002A28D10A2903D1037E0282DB00DD
:1012E00029E00D2968D0817E007E00290DD01025CF
:1012F000615F062545434D190C26A15F8D4204DD33
:10130000618A2282C200521862821225625FA58A17
:1013100002900095E58A1027E15F0195201CFFF7F8
:1013200081FE227E062343E00A2908D1002303829E
:10133000927A037E5343628A9B1863823CE00D29B4
:101340003AD0157AA94237D3517A994234D35D1BEA
:101350005668ED00AD19A978E878002926D0002854
:1013600024D06F79A67E0597207E002E12D01027FC
:10137000E65FB446059E77B2791841430C27E65FD5
:101380006144B14206DD00212182927A618A4243A2
:10139000521862821022A15E1226A25FA68A0290D3
:1013A0000096E68A201C0196FFF73CFE2A79237EF0
:1013B0005343228A9B182382012007B0F0BD407E50
:1013C00070470C23C05E70470E23C05E70476B23CE
:1013D00043700A2383700170002901D1427002E03A
:1013E000012900D18270704710B5041CFFF7EFFF90
:1013F000FA22D2000123E280C821D0229A409940EB
:10140000237123736373A373E373A375E375237667
:101410006376084B228163830A23618162821021F3
:101420006422A3830023201C2182A282A377238429
:10143000638410BDB80B000070B5061C081C02F0D8
:101440005FFF04F09FFD0D4B0B4A03F03BFF041CB4
:10145000308A0D1C401004F023FD021C0B1C201CC4
:10146000291C03F02FFF064A064B03F0C1FA04F0D3
:10147000DBFD70BDC046C04608AC1C5A643BAF3FA4
:101480000000000000408F40F8B50578041C0F1CD8
:10149000161C002D12D0012D24D18078002100F0DF
:1014A000ADFD391C1048FFF7F1FB311C0E48FFF76A
:1014B000EDFBA078291C00F0A1FD13E00B4D417855
:1014C000281CFEF7D1FF391C281CFFF726F8311C19
:1014D000281CFFF722F8281CFFF77DF8431E9841CF
:1014E000C0B200E00020F8BD28080020EC05002074
:1014F000F7B51F1C0378041C0E1C0192002B0FD0A3
:10150000012B44D18078002100F078FD019B8021DF
:1015100019432448FFF7BAFB0023351C019327E049
:10152000214D4178281CFEF79FFF0199281CFEF7EA
:10153000F4FF281CFFF74FF86178281C3A1CFEF7CF
:10154000E7FF341C281CFEF72AFF00281FD0A31B2E
:10155000DBB2BB421DD31AE012480021FFF796FB15
:10156000FF2803D1019B0133DBB2019328700135C1
:10157000AB1BDBB2BB42EFD3019BBB4201D00025CA
:1015800000E00525A078012100F038FD07E00025E6
:1015900005E0281CFFF724F820700134D2E7281C4E
:1015A000FEBDC04628080020EC05002037B501AC80
:1015B0000D1C0223211CFFF79BFF637822781B027E
:1015C00013432B803EBD37B56D460635291C2822B6
:1015D000041CFFF7EBFF002808D0052803D1238C5B
:1015E0000133238402E0638C013363840023E85ECB
:1015F0003EBD10B5041CFFF7E6FF011C201CFFF7E1
:101600001BFF10BD37B56D460635291C2A22041C68
:10161000FFF7CCFF002808D0052803D1238C013325
:10162000238402E0638C013363840023E85E3EBDC3
:1016300010B5041CFFF7E6FF011C201CFFF7FCFEA1
:1016400010BD37B56D460635291C2C22041CFFF74A
:10165000ADFF002808D0052803D1238C0133238453
:1016600002E0638C013363840023E85E3EBD10B565
:10167000041CFFF7E6FF011C201CFFF7DDFE10BD78
:10168000F7B50778051C0191141C002F1CD0012F01
:1016900036D18078002100F0B1FC1C4E802121431E
:1016A000301CFFF7F3FA0021301CFFF7EFFA391C6A
:1016B000041CA87800F0A2FC231CFF3B5A425341B3
:1016C00005205B4218401DE0114E4178301CFEF7AA
:1016D000CBFE211C301CFEF720FF301CFEF77BFFE9
:1016E0006978301C0122FEF713FF3C1C301CFEF70A
:1016F00056FE002806D0301CFEF772FFC4B2F5E794
:101700000020041C019B1C70FEBDC0462808002060
:10171000EC05002073B50478051C002C16D0012CB4
:1017200017D1194E301CFFF777FA301C0C21FFF748
:10173000A5FA301C211CFFF797FAA878211C00F0AD
:1017400003FCA878211C00F059FC02E00F48FEF7CA
:101750005DFE6B46002206331A700D4A1978013A75
:101760000131C9B292B21970002AF7D16C46073420
:10177000281C211C0F22FFF783FF20786938431EA5
:101780009841C0B276BDC04628080020EC05002074
:1017900010270000F7B56C4600230634051C0E1C0C
:1017A0002370FFF7B7FF071C002E23D02B7933706F
:1017B000EB8873802B89B3806B89F3802B7B33722A
:1017C0006B7B7372AB7BB372EB7BF3722B8AB3814F
:1017D0006B8AF381AB8A3382AB7DB374EB7DF37498
:1017E0002B7E33756B7E73756B8BF382AB8B338380
:1017F000AB7FB376AA7B00232370012A76D1AB8A14
:10180000642B0BD003D8322B0DD1032307E0C82B58
:1018100007D0C8225200934207D004E0022323706D
:1018200003E0227001E09023AB732B8A042B08D0D5
:1018300002D8022B11D00AE0082B05D0102B08D0BB
:1018400005E02378082206E023780C2203E0102329
:101850002B8223780422134323706B8AD0225200F8
:1018600093422FD00ED8342B21D006D80D2B1BD06D
:101870001A2B1FD12378202236E0682B1CD0D02BC6
:101880001DD017E0594A934225D006D8584A9342B2
:101890001BD0584A93421BD00CE0574A93421DD0AC
:1018A000564A93421DD005E0237810221CE023788D
:1018B000302219E068236B822378402214E02378D9
:1018C000502211E0237860220EE0237870220BE092
:1018D0002278802307E02278702304E022786023B6
:1018E00001E0227850235B421343237022781021B9
:1018F000281CFFF7C9FD1322281C211CFFF7C0FE7E
:1019000022787F231340EA7B2370012A03D18022AF
:101910005242134323702278281C1321FFF7B4FD91
:10192000002323702B79012B53D1EB88FA2252002C
:10193000934210D004D87D2B0BD0F52B14D00EE0A1
:10194000FA229200934208D0FA22D200934209D0A0
:1019500005E0022307E0042305E0082303E0FA235F
:10196000DB00EB800C2323702B89682B20D008D858
:101970001A2B15D0342B16D00D2B17D1237810220B
:1019800025E0D0225200934218D002D8D02B12D09A
:101990000CE0174A934214D0164A934214D005E043
:1019A0002378202213E02378302210E068232B8153
:1019B000237840220BE02378502208E0237860222D
:1019C00005E02378702202E0802322785B421343F3
:1019D00023702278281C1121FFF756FD6946281C28
:1019E00007310F22FFF74CFE381CFEBD020D000030
:1019F000410300007C060000041A000012340000BD
:101A000008B5024801F042F908BDC046740A00203A
:101A100008B5024801F03AF908BDC0463808002070
:101A2000F7B5164F1649381C00F00CFD154916483D
:101A300000F008FD1549164800F004FD1549164848
:101A400000F000FD1549164800F0FCFC154D03267A
:101A50000124281C144900F0F5FC391C0096231CB5
:101A600001940022114801F01DF80096291C0194F0
:101A70001F221E230E4801F015F8F7BDB40C0020FC
:101A800000080042000C0042B80C00200010004288
:101A9000BC0C002000140042B00C002000180042D2
:101AA000C00C0020C40C0020001C0042740A00205E
:101AB00038080020124B00221A70DA79D209FCD1C2
:101AC000104A11499160114951605178C909FCD1FE
:101AD0000F490C4A51801A7901210A431A715A7828
:101AE0000F218A435A701A7804218A431A70D979CF
:101AF000034AC909FBD1137802210B431370FEE797
:101B000000100040000C004002040000020311001D
:101B10000342000008B5034B1B68002B00D0984718
:101B200008BDC046C80C002038B50F490F4CA14273
:101B300004D100F055F800F0F5FA0BE00C4D8D42A1
:101B4000F7D00023CA18E818A24204D20068043370
:101B50001060F7E7FEE79042EBD0064B064A93424F
:101B6000E7D2002204C3F9E7000000203003002080
:101B700018700000300300205413002008B500F056
:101B80002CF8002801D100F01DF808BD014B1860A9
:101B90007047C046C80C0020014B18687047C0460B
:101BA000CC0C002070B5041E08D0054B1D681E1C0F
:101BB00000F012F833685B1BA342F9D370BDC04636
:101BC000CC0C002008B5034B1A6801321A6000F0F3
:101BD000FFFB08BDCC0C00207047002070470000C0
:101BE00070B5494A1E21536802208B43034347497D
:101BF00053608B69082423438B61454C454B9C8281
:101C00009C8A20439882101CDA689407FCD5424ACB
:101C1000012414701478E50704D53F4C647864B24D
:101C2000002CF7DB01249460547864B2002CFBDBB9
:101C30003A4D394C6560547864B2002CFBDB822548
:101C4000354CED016580547864B2002CFBDB022436
:101C50009C84DC68E606FCD5314D2E4CE562DD68DF
:101C60002C4CEE06FBD5A58C2E4E3543A584DD68A5
:101C7000284CEE06FBD5A58C02263543A584DC68EE
:101C80002506FCD5234CE4686606F8D5DC68E50635
:101C9000FCD500249460547864B2002CFBDB224D08
:101CA0001D4C656055781C4C6DB2002DFADB1E6A28
:101CB0001E4D35401D621D6A8026B5431D620323FB
:101CC000A3601B4B636053785BB2002BFBDB0023EC
:101CD0000B72184A4B728B72CB72174BFF211A6032
:101CE000164B174A1B6812685C01D20E2140114343
:101CF0009A06520F12020B1C1343124A13854368B3
:101D000080221343436070BD004000410004004046
:101D10000C06000000080040000C00400105010016
:101D2000B905FF7D040A000000070300FFFCFFFF68
:101D300003060100006CDC02200200202460800009
:101D4000206080000040004218235843174B70B5B4
:101D500018181623C3565A1C26D0102B24D0012243
:101D60009A40134B91B29960596912489143596155
:101D700001680023051C8B4216D00F489C00245894
:101D8000944201D00133F6E74A1E93420BD201334D
:101D90009A0086588418043C2660084C1659A218EC
:101DA000043A1660F0E72A6070BDC046206A000061
:101DB00000180040580D0020140D0020D00C002009
:101DC000F8B50024094B1B689C420DD2084E094F00
:101DD000A5003369EA591A4204D0074BEB589847DB
:101DE000EB5933610134EDE7F8BDC046580D0020D2
:101DF00000180040140D0020D00C0020314BFA21B7
:101E0000186810B5890002F06BF92F4B0138984221
:101E100024D82E4A2E4B5060186AC0210002000AB6
:101E20000906014319620024072194601160196AB0
:101E300080220902090A12060A431A62254BFC2174
:101E40001A6A0A431A62196AFC2292010A431A6248
:101E5000196AA022D2020A431A6200E0FEE7201C9F
:101E60000021013400F070F8142CF8D11A4C63787A
:101E70005BB2002BFADB194B6380194B5A7ED209F7
:101E8000012AFAD0E422D2009A803F22DA70597EE9
:101E9000134AC9090129FAD0C0235B01002013614C
:101EA000907000F023F863785BB2002BFBDB0D4AE7
:101EB000094B5A800C4BDA79D209012AFAD0412217
:101EC0005A7010BD20020020FFFFFF0010E000E06C
:101ED00000ED00E000040040000C00401E40000047
:101EE00000400042214000000048004200B5144A72
:101EF000517E131CC9090129F9D00138042813D8CF
:101F00001969104A0A401A615A780F218A4302F06F
:101F1000DDF8030509070300012102E0032100E0C9
:101F200002210A435A700AE01169F0231B050B4392
:101F3000136153780F218B4302210B43537000BD73
:101F400000400042FFFFFFF010B51824021C201CC7
:101F50005043274B1818007A40B2013046D003296D
:101F600044D8081C211C02F0B1F80233112162434D
:101F700098569A18C3011F4852681B189918403187
:101F8000022008700121914059602FE06243985669
:101F900018499A185268C3015B18991840310620F5
:101FA000087001219140596099611FE051435A56D0
:101FB000104859184B68D2011118C818403006242F
:101FC00004700120984048600B49521850600DE0A1
:101FD000624398569A18C301064852681B1899180C
:101FE00040310220087001219140996010BDC04627
:101FF000206A000000440041104400411823584367
:10200000134AF0B5131808241C5701341FD0825608
:10201000104ED2015D6801249019231C8668AB40E4
:102020001E420BD10E1C771EBE4140193440403079
:10203000A50004780426B4432C430470002903D17E
:1020400005495218536002E0024E92199361F0BDA7
:10205000206A00000044004110440041182242431D
:10206000F8B52D4D0824AA181457031C621C50D033
:10207000481C00240C284CD802F028F8071E1E1E0D
:102080001E1E1E1E1E0A0A0A0A000124644240E0A7
:10209000092902D1181C002103E00A2904D1181CC7
:1020A0000221FFF751FF23E000240B2931D1181C36
:1020B0000121FFF749FF2CE018225343EA18526828
:1020C000EB560120141C04405508DB01002C11D0F4
:1020D000124C1B195D1930352E780C010F2131403F
:1020E00021439A18C9B229704032137818431070EE
:1020F00000240EE0094E0F279B195D1930352E780C
:102100009A18BE433143C9B229704032137818433C
:102110001070201CF8BDC046206A00000044004139
:10212000FEE7704710B5FFF769FE04F037F8FFF7D8
:10213000F8FF0120FFF736FD084C201C01F0E8F8FD
:10214000201C01F05DF9FEF7B1F8FDF7EBFF044B41
:10215000002BFAD000E000BFF7E7C0460B120020CA
:1021600000000000F7B58A18061C0D1C01920C1C1B
:10217000019B671B9C4207D0336821781B68301C89
:10218000984701340028F3D1381CFEBD38B5051C32
:102190000C1C081E07D004F0FBF82B68021C5B68BF
:1021A000281C211C984738BD08B503681B68984750
:1021B00008BD000008B50249FFF7E8FF08BDC046AA
:1021C000706E000038B5041CFFF7E0FF051C201CF2
:1021D000FFF7F0FF281838BDF0B58DB0161C0BAB1B
:1021E000002201900C1C1A70012E00D80A266D46A0
:1021F0002B35201C311C01F0B7FF201CCFB2311C45
:1022000001F06EFF291C041C092F01D8303700E0B3
:102210003737FFB22F70013D002CEAD10198FFF74C
:10222000B5FF0DB0F0BD0000F7B51C1C08AB1B7866
:10223000071C211C101C151C009301F017FF00281F
:1022400002D1381C504907E0281C211C01F00EFF68
:10225000012804D14D49381CFFF798FF7CE0281C69
:10226000211C404B3E4A02F015F8002802D0381CD1
:102270004749F1E7281C211C3B4A3C4B01F0F6FF83
:102280000028F4D1281C211C394A3A4B01F0EEFFFA
:10229000002808D02D21381CFFF786FF8021090671
:1022A0000190641800E001900026334A334B0099F6
:1022B0008E420AD0101C191C314A324B02F098FB96
:1022C0000136021C0B1CF6B2F1E7281C211C02F09F
:1022D00073F80D1C041C01F0F3FF061C03F01EFE36
:1022E0000B1C021C291C201C03F07CFA0A22041C73
:1022F0000D1C381C311CFFF76FFF019B0099C6189D
:10230000002904D0381C2E21FFF74EFF3618009B01
:10231000002B20D01A4A1B4B201C291C02F0D2FF94
:102320000D1C041C01F0CCFF01900A220199381CFD
:10233000FFF752FF3618019803F0F0FD0B1C021C4A
:10234000291C201C03F04EFA009B041C013BDBB24D
:102350000D1C0093DBE7301CFEBDC046C046C046E6
:10236000000000E0FFFFEF41000000E0FFFFEFC1D1
:102370000000000000000000000000000000E03F3E
:102380000000000000002440736E0000776E000023
:102390007B6E0000C046C04637B5041C0698C1B22B
:1023A0000091201CFFF740FF051C201CFFF702FFD7
:1023B00028183EBD014B18607047C046240200201B
:1023C000024B012252421A607047C046240200208C
:1023D000154A1368581C25D0013B1360002B21D1EE
:1023E00072B6124A124B04329A4207D8BFF34F8F8B
:1023F000104A114BDA60BFF34F8F11E00F4B197D7C
:10240000C807FBD5188B2021FF31920852000143E9
:102410001983DA610A4A1A801A7DD107FCD5E5E7EB
:10242000C046FDE77047C0462402002000000000BF
:10243000030200000400FA0500ED00E00040004146
:1024400002A5FFFF01607047F7B508AC2678046865
:102450009D1E27686C1EA541ECB2920705683A43A1
:1024600027063A432A600268072529405068B501CB
:10247000002C00D05C03294301430C435460F7BD9A
:1024800030B50368C0251C68AD0312052A402243FD
:10249000C024A402090421401143196003685A684A
:1024A00014435C6030BD036801211A680A431A6056
:1024B0000268116801231942FBD1D1691942F8D190
:1024C0007047036802211A680A431A600268D369D8
:1024D0009907FCD47047000038B50268041C137ECD
:1024E000DA070CD4FFF758FB051C2268137E9A0705
:1024F00005D4FFF751FB024B401B9842F5D938BD7C
:10250000E7030000036800225A8370470368187EBF
:102510004007C00F70470368187EC0097047036802
:102520008022197E52420A431A7670470368588BFC
:102530008007C00F7047036802215A8B0A435A83F1
:1025400070470368187E0123184070470368188D90
:10255000C0B2704703681A7E01200242FBD0198581
:102560007047036801229A757047036801221A7543
:102570007047000070B5036801268D07ED0F3140EC
:102580001C686D070907294321431960046851003D
:10259000034801F0A5FD0138C0B2207370BDC046EC
:1025A000006CDC02036801211A680A431A600268A1
:1025B000116801231942FBD1D1691942F8D1704742
:1025C000036802211A680A431A600268D3699907EE
:1025D000FCD470470368DA699107FCD41A680221B9
:1025E0008A431A607047000038B5041C0D1CFFF7C1
:1025F000F1FF236801221540AA0704491D68201C29
:102600000D4015431D60FFF7DBFF38BDFFFFFFBF27
:1026100070B5041C0D1E10D0FFF7DCFF291C074805
:1026200001F0ACFD4100054801F05AFD2668013873
:10263000C0B23073201CFFF7C3FF70BD006CDC021A
:1026400003689A6A520A52021143996203681A7E19
:102650005107FCD5986AC0B27047036801211A6817
:102660000A431A600268116801231942FBD1D1693B
:102670001942F8D17047036802211A680A431A60A8
:102680000368DA699107FCD45A8B30218A43102100
:102690000A435A830268D3695907FCD47047036818
:1026A00002211A688A431A600268D3699907FCD428
:1026B00070470368802219685968D2020A435A6039
:1026C000704700000368034A196859680A405A6055
:1026D0007047C046FFFFFBFF30B5036803241D6849
:1026E0000C40074A596824040A40ED0622436D0F46
:1026F0005A60052D03D10268D3695907FCD430BD57
:10270000FFFFFCFF49001143036830B5CDB2598B80
:10271000032409092140012904D0598B09090C40DF
:10272000022CF4D1596AC90AC902294359620368C3
:10273000002A03D11A7ED107FCD50DE0187E0122B4
:102740004008104008D1197E1142F7D05968C022C4
:1027500092020A435A6003E05B8B01209B08984376
:1027600030BD0368283319700268107E01231840B9
:1027700003D1518B1942F8D003E0528B181C9208F8
:1027800090437047036828331970036800201A7E4D
:10279000510703D55B8B01209B0898437047036862
:1027A0001868C006400F043843425841C0B2704711
:1027B0000368187E4007C00F70470368187E012326
:1027C000184070470368588BC006C00F70470368F5
:1027D000187E8007C00F70470368588B0007C00F32
:1027E000704703681A68D206520F052A02D11A7E72
:1027F0009107FCD528331878C0B270470368224A85
:1028000030B5934211D0214A934211D0204A9342CD
:1028100011D0204A934211D01F4A934211D01F4A2F
:10282000934230D10E2319220DE0092314220AE02D
:102830000A23152207E00B23162204E00C2317229B
:1028400001E00D231822DCB2154901209B08A040AD
:102850009B0008605B180320C021890004405D587C
:10286000E000FF248440A5432C1CC0258540281C83
:10287000204358508023DB011A430A4B5A805A7870
:1028800052B2002AFBDB30BD00080042000C0042BF
:10289000001000420014004200180042001C0042D8
:1028A00000E100E0000C0040F8B5041C151C0E1CF3
:1028B0001F1CFFF7A3FF201CFFF7F5FDB1001C2232
:1028C0000A4069072368090C0A431A6022688423B6
:1028D0009375012E1AD10821012D00D110210C4B26
:1028E00079431868C00001F0FBFB236807219A892F
:1028F0000140D2044903D20C0A439A8123680004A0
:10290000C20C9889400B400310439881F8BDC04623
:1029100020020020F7B5019308AB041C1F780D1CA2
:10292000161CFFF73FFE201CFFF768FFBF070C22B5
:102930001743C022920336051640C02292022D048E
:1029400023683E4301991540354307221D600A4024
:102950008021236889020A435A60F7BD70B5041CC0
:102960000E1CFFF74BFF201CFFF777FE2368142295
:102970001A600D4B71001D682468281C01F0B0FB23
:102980000A49061C281C01F0ABFB7D23FA215843A1
:10299000C90001F0A5FB301AE668FF23053818408E
:1029A0009E430643E66070BD2002002040420F00B7
:1029B0000120704708B50368014A1B6A984708BDA3
:1029C00013040000031CFC33D9699A69914203D0B7
:1029D000DB69C018007D01E001204042704710B55E
:1029E000041C0069FFF75FFD221C0023FC32936189
:1029F000D36186229200A4186360A36010BD00001A
:102A0000F0B587B001930CAB1B78802602930DAB19
:102A10001B78002503930EAB1B78760004930FAB55
:102A20001B78041C0593FA239B008360194B0F1C31
:102A30000833009245600360291C321C143003F0F7
:102A4000F0FB231C8E22FC3352009D61A018DD6137
:102A5000321C291C03F0E5FB86229200A3185D605E
:102A6000009A9D6089239B002761E254019A0A4BDA
:102A7000201CE254029A094BE254039A084BE25498
:102A8000049A8A239B00E254059A8E239B00E25409
:102A900007B0F0BD806E0000250200002602000095
:102AA0002702000030B585B0041C08A8057809A8E5
:102AB000007800950190FF2002900390201CFFF702
:102AC0009FFF201C05B030BDF023081C1840303893
:102AD000434258417047F0231B01194080239B005B
:102AE00099420CD0C0239B00994206D080235B0002
:102AF0000520994204D0002002E0072000E00620D3
:102B000070470F231940012905D002394B424B4130
:102B10000220C01A00E0002070470000F0B58923B1
:102B200085B003919B00041C1827C05C3B1C4343E9
:102B3000324E0821F3185956151CFFF78FFA304B07
:102B40000821E05C3B1C4343F3185956FFF786FA13
:102B50002C4BE25C022A0AD18E239B00E05CFF280A
:102B600005D047430821F7197956FFF777FA8A27E6
:102B7000BF00E05DFF281AD00121FFF7E5F9E35D12
:102B800018225A43B3562049DB0158188B2189007B
:102B900060501E49B6185B188C217268890063501A
:102BA000012191400A1C8D21890062501A60012187
:102BB0000A1C039B2069FFF777FE291C201CFFF7E6
:102BC0008AFF291C071C201CFFF79BFF291C061CE1
:102BD000201CFFF779FF391C0090331C206901226B
:102BE000FFF732FC074B2069E15C094BE25CFFF721
:102BF00047FC2069FFF765FC05B0F0BD206A0000C6
:102C0000250200002702000018440041144400413E
:102C100026020000031CFC3358689B68C01A01D5CB
:102C20000130FF307047000038B5041CFEF7B4FFD8
:102C3000051C8E235B00E018FFF7ECFF002805D091
:102C4000FEF7AAFF034B401B9842F2D92069FFF719
:102C500043FC38BDE703000008B51430FFF7DAFF86
:102C600008BDFC30426883689A4204DB4368806890
:102C7000C01AFF3003E082684368D01A01387047F9
:102C800008B51D30FF30FFF7ECFF08BD38B5041C58
:102C90000069FFF74BFC002805D02069FFF756FCC0
:102CA0002069FFF748FC2069FFF730FC002820D09E
:102CB0002069FFF74BFC231CFC339A69D969013268
:102CC000D2B28A4203D09969611808759A618A2341
:102CD0009B00E35CFF2B0CD0201C1430FFF7C1FFDE
:102CE000182806DC8B238D229B009200E358A25803
:102CF0001A602069FFF725FC00281FD08E225200A1
:102D0000A518281CFFF786FF031C2069002B13D091
:102D100086229200A31899685A68914206D09A6850
:102D2000A95C9A680132D2B29A6001E0012149425D
:102D3000C9B2FFF70FFC01E0FFF717FC2069FFF7AE
:102D4000EAFB002805D02069FFF7E9FB2069FFF7BF
:102D5000D9FB38BD70B5041C00690D1CFFF7F1FBF1
:102D60008E225200A61800280ED0301CFFF752FF0A
:102D700000283DD008E0EFF31083DA0722D41F4B80
:102D80005A68D205D20D0AD186229200A31858683B
:102D90009A680130FF2108409042ECD01BE0103AC5
:102DA000D2B253B2002B08DA0F231A40083A144B60
:102DB00092089200D218536804E09B08C033114A6D
:102DC0009B009B582069FFF7BCFB0028DCD0201C2F
:102DD000FFF75CFFD8E75A6801320A4099688A42D7
:102DE00002D0596875545A602069FFF7BAFB03E0B6
:102DF0002069291CFFF7AEFB012070BD00ED00E04B
:102E000018ED00E000E100E038B5031CFC33D9699F
:102E10009A69041C914207D0DA698218157DDA6933
:102E20000132D2B2DA6101E001256D428A239B00B2
:102E3000E35CFF2B0CD0201C1430FFF712FF192885
:102E400006DD8C238D229B009200E358A2581A6065
:102E5000281C38BD10B507230F220240141C00099E
:102E60003034092A00DD0734CC54013BF4D210BDC4
:102E700010B5054B041C0360806903F0BFF9A06A1C
:102E800003F0BCF9201C10BDC06E000010B5041C7E
:102E9000FFF7EEFF201C00F0DDFF201C10BD00003E
:102EA00070B582291ED1C2B22A495301CB189D693F
:102EB000294C80012C40C025AD052C439C61274C3A
:102EC0000832201858610B68520199180C7980203B
:102ED000404220430871D15C70208143302001437F
:102EE000D15435E0002933D1C2B21A495301CB186D
:102EF0009E68194DC0242E40A40526439E60184E9E
:102F0000800109683018083258605201505C072669
:102F1000B0430126304350549E6935402C439C6198
:102F20000E4C5C61505C7024A0431024204350542C
:102F30009C680C488A1820408024640320439860D1
:102F400098684021800B8003986053790B4353713C
:102F500070BDC04614120020FFFFFF8F680E0020D6
:102F60002C100020FF3F00F038B5041C08CC0121D4
:102F70001A78051C0A431A708022201C0021520076
:102F800003F04FF92B689A78D107FCD45C6238BD06
:102F9000134BF0B51B6899035A029B01C90ED20E60
:102FA0005B0F1F2900D105211F2A00D11D22072BED
:102FB00000D1032304688E01278D0A491F2539405B
:102FC0003143218501682A400C8DAC4322430A8598
:102FD00002681903108D044B03400B431385F0BDA9
:102FE000246080003FF8FFFFFF8FFFFFEFF31083A7
:102FF00003600123436072B670470368002B02D15F
:1030000062B6BFF36F8F704737B50569041C684619
:10301000002D12D1FFF7EAFF019B013B03D3621D94
:10302000D57FEDB2F9E768460193FFF7E6FF002090
:10303000854217D0206AE36913E0FFF7D7FF019BB1
:103040000025013B04D3221C34321578EDB2F8E799
:1030500068460193FFF7D1FF0020854202D0206B24
:10306000E36AC01A3EBD0000436810B51A68037ACF
:1030700001215B01D318FF339A7A0A439A72037ACB
:1030800042685B01D318C2689C6891040B4A090925
:1030900022400A439A60037A42685B01D3189A6817
:1030A0004021920B92039A6043681A68037A0833AE
:1030B0005B01D3181A790A431A7110BDFF3F00F063
:1030C000F7B50569041C0E1C171C6846002D1FD19E
:1030D000FFF78CFF019B013B5A1C06D0621DD17F7C
:1030E0005A1E00293AD0131CF6E768460193FFF7F1
:1030F00084FF0025E369BD4235D0226A934232D273
:103100005A1CE261A269D3181B7873550135F1E7A7
:10311000FFF76CFF019B013B5A1C08D0221C343284
:1031200015785A1EEDB2002D18D0131CF4E768462E
:103130000193FFF762FF0025E36ABD4226D0226BB0
:10314000934241D322E0621D0021D17730321678BC
:10315000581E8E4214D1031C5A1CF4D168460193A8
:10316000FFF74BFF38E0226A934235D10023E36139
:10317000012323616846FFF739FF019B013BEBE721
:103180001170201C0193FFF76FFFF6E7226B93424B
:1031900022D10023E36223616846FFF727FF019BEA
:1031A000013B5A1CDAD0221C34320021117001324A
:1031B0001678581E8E4201D1031CF2E71170201CB4
:1031C0000193FFF751FFEAE75A1CE262A26AD318A3
:1031D0001B7873550135AFE7281CFEBD37B5436832
:1031E000027A1B68083252019A18041CD079012314
:1031F000FF21184255D0D371A0686569626801400B
:10320000002D1FD14901521891688904890C21624F
:10321000216A002942D06361A36A68465360FFF7C0
:10322000E5FE019B013B5D1C34D0621D0120D0777F
:103230002F3211785D1EC9B21218002915D11170F4
:103240002B1CF0E74B01D3189A689204920C22636E
:10325000226B002A22D000226261A26968465A606D
:10326000FFF7C4FE019B013B12E00193107068461A
:10327000FFF7C3FE15E0221C343201201070621DDE
:10328000D17F5D1EC9B230320029EED111702B1CE6
:103290005D1CF0D168460193FFF7AFFE201CFFF7DD
:1032A000E3FE37BD37B500236C46E3710734201CBD
:1032B0000D1C00F019FE2B681818286000F0BCFEE9
:1032C000211C00F073FE2B681818286020783EBD82
:1032D00003290BD10D4BB2221B685200985C802150
:1032E000494201439954022168220CE001290CD182
:1032F000064B92221B685200985C80214942014390
:10330000995402212822FF32995470471412002048
:1033100038B5304B00240121051C1A201C70FEF723
:1033200013FE1A200121FEF769FE2B4B1920012103
:103330001C70FEF709FE19200121FEF75FFE274BE6
:103340002021DA6901200A43DA61254B06241A7824
:1033500002431A70234B0F22197891431970197880
:103360002143197020490C782043087019780A40CD
:103370001A701A7860210A431A701C4B1C4A5A8032
:103380005A78D209FCD11B48FEF700FC1A4C201CCD
:10339000FFF7EAFD201CFFF7FBFD23687F22197869
:1033A0000A401A701A7804210A431A701A890C21EB
:1033B0008A431A81C121114A890050580002000A2B
:1033C0005050802111601A7802210A431A7001239B
:1033D0002B7038BD2810002010120020000400407F
:1033E000584400413C44004159440041000C004015
:1033F000064000002D3E00001412002000E100E015
:103400000078002810D0094B01211B681A898A43D3
:103410001A811A8B08210A431A831A8B04210A4342
:103420001A83034B00221A607047C0461412002012
:10343000181300200F4B9A69920B92039A611B6834
:103440000222FF331A7298798022524202439A7103
:103450001A7A9007FCD5084B081C997A7F221040F5
:10346000914301439972997A802252420A439A7297
:103470007047C046141200200050004110B50B796F
:103480000C1C002B0BD1081C00F03CFD002804D1C3
:10349000094B9A69920B92039A6101200BE000F0AC
:1034A000CBFD211C00F0B6FD0028F6D1024B9A6935
:1034B000920B92039A6110BD14120020F7B50D1CF7
:1034C000832A18D1CAB236495301CB189C693548B2
:1034D000AD012040C024A405204398613248083241
:1034E00045195D610B685201D15C70208143402019
:1034F0000143D15453E0022A4DD12C4B8900C858C6
:103500000191002802D003681B699847382000F019
:103510009DFC274B224F8026036076000023421D2E
:10352000036203614361C36147608560C660D3770E
:103530002F32041CC36203631370301C537002F0FB
:1035400053FEA061301C02F04FFEFF231D406D01B1
:10355000A0627F19B968134A07250A40C02189056E
:103560000A43BA60A16862681940126808314901CB
:10357000885CA843032528438854A26861681340E7
:103580005B01A269CB185A60201CFFF76DFD074B49
:1035900001995C5003E0081C111CFFF781FCF7BD8A
:1035A00014120020FFFFFF8F680E0020EC11002096
:1035B000C06E000038B5051C0124064BA200D2588D
:1035C000002A06D0211C281C0134FFF777FFE4B243
:1035D000F3E738BD2802002008B5084B8A00D05810
:1035E000002803D003689B68984706E0C9B2044BE3
:1035F0004901591888688004800C08BDEC1100202E
:103600001412002010B50C1CFFF7E6FF00280CD0A8
:10361000064BE1B21B680831490159184A798023E9
:103620005B4213434B710223CB7110BD1412002077
:1036300070B5CAB2134B14485401890159180319C3
:1036400059609D681149083229408025AD022943FF
:10365000996099684026890B890399600368510134
:1036600059180D7935430D715101591889794D0655
:10367000FAD551015918C979CD07FAD50419A068AE
:10368000C0B270BD2C10002014120020FF3F00F0CB
:1036900038B50C4B141C1B680D1CFF335A794021A4
:1036A0000A435A710021FFF7C3FFA04200D9201C32
:1036B0000023A34204D0044A9A5CEA540133F8E799
:1036C00038BDC046141200202C10002010B5C9B21D
:1036D0000C48490143189A689204920C3F2A08D971
:1036E000141C9A68403CA404920BA40C920322433D
:1036F00002E09A68920B92039A6041188868C0B2FF
:1037000010BDC04614120020F0B51C1C2F4B85B014
:103710001B68061C0D1C0292002B51D02C4F3978CF
:10372000C9B2002902D11920FEF768FC64233B705E
:10373000284BAA00D058002805D0036802995B687E
:10374000221C984740E0301C291CFFF745FFA0428F
:1037500004D2301C291CFFF73FFF041C291C301C1D
:10376000FFF7B4FF1C4FE9B24A0101913968039297
:103770008B18FF335A7A01210A4318495A72AB0158
:10378000C9180298221C02F043FD002C1BD0301CEB
:10379000291CFFF721FF002815D1019B3A68083347
:1037A0005B01D31819794020014319710121D971A6
:1037B00003995318FF339A7A01210A439A7202E05F
:1037C0000120404200E0201C05B0F0BD181300208D
:1037D00010120020EC110020141200202C100020E8
:1037E00013B56C460734221C0123FFF78DFF012817
:1037F00001D1207801E00120404216BDF0B51C1C2B
:103800003F4B85B01B680E1C0292002B6AD08023B0
:10381000DB019C4266D83B4D2978C9B2002902D110
:103820001A20FEF7EBFB642300222B700092002C81
:1038300056D0354DF7B22B6801933B1C0833019AE3
:103840005B01D3189B79DB091AD0304B30491868DB
:1038500000F046FC2F4B1721584300F041FC3B1C65
:103860000833019A5B01D318DB799A0708D42A4BF5
:103870009A5D002A38D1421E002835D0101CEEE790
:10388000254B00229A55251E3F2D00D93F25234A5E
:10389000B301D318181C02992A1C039302F0B8FC38
:1038A000194A7B01D318039AA9045A619A69890CB1
:1038B000920B92030A439A613B1C019A08335B0105
:1038C000D3180222DA715979802252420A435A717E
:1038D000009B029A5B1952190093641B0292A6E79F
:1038E00000980BE0012008E001229A557B01ED18B9
:1038F000AB69101C9B0B9B03AB61404205B0F0BD54
:10390000181300202810002014120020200200208C
:1039100040420F0070110100600E0020680E002070
:1039200070B50E4D1C1C8B01ED18281C0E1C111CB3
:10393000221C02F06DFCF6B20949760189194D612D
:103940008A69084B201C13408B618B69A2049B0B76
:10395000920C9B0313438B6170BDC046680E002020
:1039600014120020FF3F00F0F7B5114B01901B78B7
:103970000F1C141C002B19D10E4B1E78002E01D1E8
:10398000151C08E00C4D0D482E888019361902F0E0
:103990003FFC2E800AE0002D08D0BA192B1C01989C
:1039A0000021FFF7BDFF36182D1AF4E7201CFEBDDD
:1039B0000A120020081200205E0E00205D0D00207B
:1039C000F8B50E1C00AF151E012D28D9D31DDB083C
:1039D000DB006A46D21A9546081C02F0D9FC013079
:1039E0006C4640000323207063700222AA420ED26C
:1039F0003378002B0BD0511CC9B20136A354A94215
:103A000004D0002302326354D2B2EFE72A1C0548E7
:103A1000211CFFF7A9FF431E9841C0B200E000201F
:103A2000BD46F8BD0B12002008B5044B00221A70E9
:103A3000034B04491A88FFF797FF08BD08120020BE
:103A40005E0E00205D0D0020F0B5204A87B00123F6
:103A50000026009102A91370051C0296FFF722FCB4
:103A600003AC092701903A1C201C311C02F0D9FB41
:103A700002236370A023E371FA232372029B0122C5
:103A8000DB196380019B62712371104A009B2770D0
:103A90001670BB4205D1281C211C1A1CFFF764FFBD
:103AA00011E00B4B01221A700A4B211C3A1C281CF6
:103AB0001E800296FFF758FF281C02A9FFF7F2FBB1
:103AC000281CFFF7B1FF012007B0F0BD0A1200204B
:103AD000081200205E0E002070B5CE7892B0051C52
:103AE0000C1C022E08D1C9882D48FFF7ADFF031C1E
:103AF000581E8341D8B251E000F09EFA211C00F01C
:103B00006AFA002803D0C3171B1AD80F46E0012E0B
:103B100004D1E2882349112A3BD837E0032E3DD156
:103B2000A278002A05D12049E2880B7893422DD84B
:103B30002FE0022A03D1A279281C1C4904E0012AA3
:103B400005D1A2791A49281CFFF73AFF26E0032A7B
:103B500024D1184B01A91868FFF77CF9164B03A96B
:103B60001868FFF777F9154B05A91868FFF772F980
:103B7000134B07A91868FFF76DF900F05DFA09A962
:103B800000F039FAA279281C01A9DDE7D2B2002A97
:103B900000D10A78281CFFF7E7FE012012B070BDA3
:103BA0000B120020E86E0000E46E0000FA6E0000C8
:103BB000D86E00000CA0800040A0800044A08000CF
:103BC00048A0800073B5051C48780C1C0B2878D8D9
:103BD00000F07CFA081C7728773E4306474B686F55
:103BE00000206FE0097801AA002903D111705170FB
:103BF000281C09E0002313705370334B1B78012BF2
:103C000000D11370281C002102234FE08A78002382
:103C1000012A04D101AA137053702C4BEEE72A4AF3
:103C2000137049E08E78012E07D1284B01AA00219C
:103C30001E701170281C331C38E0002E08D1224A57
:103C400001231370224A9169890B8903916138E03D
:103C5000A178281CFFF7EEFB33E0281CFFF73CFFA0
:103C600030E0281C00211B4A1FE00A780020D30600
:103C700028D1281CFFF79EFCA2781549154B022479
:103C80001A600A682A23FF33D05C2043D0544A20AC
:103C9000FF30145C01231C4314548A69920B920375
:103CA0008A610EE00C4A281C00210123FFF738FE30
:103CB00007E08A78084B1A60054B9A69920B9203C9
:103CC0009A61012076BDC0465C0D002009120020DB
:103CD00014120020181300200C120020F8B54B4BD2
:103CE000071C1C78002C00D08FE0494D2868838B7E
:103CF00019070ED5201C211CFFF7D2F82B681020C5
:103D00001A1CFF32917A01439172424A14600822D0
:103D10009A832B689A8B50071FD504229A833E4BB7
:103D20001A78002A0AD01A78013AD2B21A701B788F
:103D3000002B03D11A200121FEF760F9374B1A78C6
:103D4000002A0AD01A78013AD2B21A701B78002BD6
:103D500003D119200121FEF751F92B68FF331A7A9C
:103D6000D10626D510221A725A7940210A432C49CD
:103D70005A710A786023381C1A4202D1FFF722FFD9
:103D800001E0FFF77BFB002806D02B688022FF3381
:103D9000997952420A4301E0224B20229A712B6802
:103DA000FF331A7A500604D540221A72597A0A4310
:103DB0005A722968FE230E8C00241E40E1B2002EA8
:103DC00023D0321C012322411A4216D0221C28681B
:103DD000083252018218D079184203D1D279DA40E0
:103DE0001A4207D0104BA200D058002809D003680F
:103DF0001B6898470123A3409E430134092CDDD161
:103E000003E0381CFFF764FAF4E7F8BD081200205D
:103E10001412002018130020281000201012002077
:103E20002C100020FF500041EC11002008B5024882
:103E3000FFF754FF08BDC0460B120020014A024B99
:103E40001A607047005000411412002008B502F0BB
:103E5000CBF908BD08B502F0D1F908BD3F20704785
:103E600013B502686B46D97107335468191C0122D7
:103E7000A04716BD08B500690221FFF7ADFB08BDDC
:103E800008B500690321FFF7BDFB08BD38B50D1C5F
:103E9000041C131C006903212A1CFFF7AFFC002837
:103EA00001D10123636038BD10B5054C23685A1C4D
:103EB00004D103685B6998472060031C181C10BD7F
:103EC000A0020020074A08B51368591C04D001213C
:103ED00049421160181C03E000690221FFF780FCD1
:103EE00008BDC046A002002008B50378034902338C
:103EF000037042220248FFF737FD08BD5C02002034
:103F00000B12002010B50178031C42780020A12973
:103F100008D1212A2FD1184818490722FFF724FD7C
:103F2000012028E0212926D1202A05D11349072282
:103F30001148FFF7ADFB04E0222A10D19A780F4B0D
:103F4000DA710E4B96221968D200914210D1DC79B9
:103F500001231C400CD1FA20FEF72CFA0AE0232A98
:103F600009D1DA789B7812021A43054B1A6002E0F5
:103F7000FEF726FA002010BD0B1200205002002090
:103F800058020020064BFA21890099600549002259
:103F90000831196004495A6019611A767047C046A1
:103FA0001C130020086F00000B12002070B544683D
:103FB0000E1C0025002C09D02368201C5B68311CD6
:103FC0009847002804DB2D18E468F3E7281C01E07B
:103FD0000120404270BD38B544680D1C002C08D04B
:103FE0002368201C9B68291C9847002802D1E4689C
:103FF000F4E7201C38BD38B544680D1C002C07D0F0
:104000002368201C291CDB689847E4682D18F5E715
:104010002C7038BD38B544680D1C002C08D02368BE
:10402000201C1B68291C9847002803D1E468F4E78A
:10403000201C00E0012038BD064B0122196810B594
:104040001140054805D102240470042444704160E5
:104050001A6010BD401300203813002008B5031C5F
:10406000081C191C02F08AF808BD00000B1C011C7A
:10407000021C30B519430220002900D130BD802137
:1040800009068B4216D00D4904205C180C498C425D
:10409000F4D90C4D5C198C42F0D90B4C59004908ED
:1040A0000320A142EAD9074C0020A142E6D15042A8
:1040B0005041E3E7002AE1D0EFE7C0460000F0FFFF
:1040C000FFFFDF7F0000F07FFFFF0F0002B47146AB
:1040D00049084900095C49008E4402BC7047C0464B
:1040E000002934D00123002210B488422CD30124AB
:1040F0002407A14204D2814202D209011B01F8E740
:10410000E400A14204D2814202D249005B00F8E7F8
:10411000884201D3401A1A434C08A04202D3001B24
:104120005C0822438C08A04202D3001B9C08224357
:10413000CC08A04202D3001BDC082243002803D095
:104140001B0901D00909E3E7101C10BC70470028C7
:1041500001D00020C04307B4024802A140180290D9
:1041600003BDC046D90000000029F0D003B5FFF719
:10417000B9FF0EBC4243891A1847C046002941D0F6
:1041800010B4041C4C40A44601230022002900D591
:104190004942002800D5404288422CD301242407FC
:1041A000A14204D2814202D209011B01F8E7E400D6
:1041B000A14204D2814202D249005B00F8E7884262
:1041C00001D3401A1A434C08A04202D3001B5C08DA
:1041D00022438C08A04202D3001B9C082243CC0837
:1041E000A04202D3001BDC082243002803D01B0995
:1041F00001D00909E3E7101C6446002C00D54042B9
:1042000010BC7047002806D003DB0020C0434008E4
:1042100001E08020000607B4024802A14018029085
:1042200003BDC046190000000029EBD003B5FFF71D
:10423000A7FF0EBC4243891A1847C0467047C046C4
:104240008446101C62468C46191C634600E0C0463A
:104250001FB500F0B9FF002801D40021C8421FBDDE
:1042600010B500F0E9FE4042013010BD10B500F07D
:10427000ABFF002801DB002010BD012010BDC046AF
:1042800010B500F0A1FF002801DD002010BD0120C5
:1042900010BDC04610B500F019FF002801DC002059
:1042A00010BD012010BDC04610B500F00FFF002862
:1042B00001DA002010BD012010BDC0460000000042
:1042C00038B50E4B0C4A041C0D1CFFF7EDFF0028FF
:1042D00004D1201C291C01F0AFFD38BD074B064A54
:1042E000201C291C01F07EFA01F0A6FD80231B068C
:1042F000C018F2E7C046C046000000000000E041E0
:1043000070B5041E3CD0C60F00D04442201C01F002
:1043100017FF9E23251C1B1A962B0CDC08388440A3
:104320006402640ADBB2321C6402DB05600AD20755
:104330001843104370BD992B0ADD0522121A211C67
:10434000D1400A1C011C1B318D40691E8D41154353
:10435000052801DD421F9540164C2C406A0704D009
:104360000F221540042D00D0043461010CD59F2389
:10437000181AFF281AD0A401640AC3B2321CD3E76A
:10438000002200230024CFE7E408FF2B04D06402BE
:10439000640ADBB2321CC7E7002C04D08020C003C3
:1043A00004436402640A321CFF23BDE7321CFF236E
:1043B0000024B9E7FFFFFFFBF8B55F4656464446C9
:1043C0004D46F0B40C034D00CE0F610A440F21435B
:1043D000C400180380465800400D8246D80F84461A
:1043E0004046400A530F0343D0006D0D371C8346EF
:1043F0005246664500D19DE0AF1A002F00DC03E174
:10440000002A38D1184300D0E4E0630709D00F2315
:104410002340042B05D0231DA342A4416442091963
:104420001C1C080200D478E0CE4B6A1C9A4200D1D2
:1044300005E1CD4BE4081940480752054902044301
:104440000B0B520D371C002000211B03201C1C0BE2
:104450000B0D1B05C54D2343520552081D40154346
:104460006D006D08FF07291C39433CBC90469946F6
:10447000A246AB46F8BDBB488542C6D080200004AA
:104480000343382F00DDECE01F2F00DD20E120206A
:10449000C01B1A1C814682405846F840024394468D
:1044A00058464A469040421E9041FB4062460243B5
:1044B0001F1CA21A9442A4416442C91B091B141C6C
:1044C0000B02A2D549024F0A002F00D1C4E0381CCC
:1044D00001F036FE021C083A1F2A00DDB7E0282151
:1044E000091A201C9740C84007439440954200DDBC
:1044F000A9E0551B691C1F2900DDD8E01F22551BB0
:104500003B1C221CAB40CA40AC40651EAC4113436F
:10451000CF401C43391C002577E74807E4086A05AB
:10452000C908520D371C04438E4B9D4248D00903E5
:104530000B0B88E7AA1A9446002A00DC98E0504644
:10454000002853D08748854200D15EE780200004D0
:1045500003436246382A00DDFDE01F2A00DD4BE1FF
:1045600020226046101A1A1C824082469146584604
:104570006246D0404A4602439046584652469040D2
:10458000421E9041424602436046C3401219A24275
:10459000A441644259180919141C080200D434E7D4
:1045A000704B01359D4200D124E16F4B60081940EA
:1045B000012323401C1C0443CB071C43490824E768
:1045C0000B1C234300D1C7E180231B030B431B03B8
:1045D0001B0B38E7013F002F64D15846221A944242
:1045E000A4416442C91A091B141C69E758461843C0
:1045F00000D10AE70122524294446046002800D0CC
:10460000C5E058460219C2E7002F72D1681C400568
:10461000400D012800DCDEE05A46A21A9442BF4158
:10462000C81A7F42C71B380200D488E05A46141BC0
:10463000A3459241591A52428F1A664644E7371CE5
:1046400000230024FFE64849AD1A3940DDE6271C67
:1046500028388740002449E7201C01F071FD2030F4
:1046600038E75A461A43531E9A41D2B2002720E730
:10467000002A00D0DDE0681C4205520D012A00DC52
:104680008EE0384DA84200D1B3E05D462A19A2421F
:10469000A441644259180919CC0752081443490827
:1046A000051CB2E62F48854200D0EAE6ADE62B1C99
:1046B0001F3B3A1CDA40131C20296DD03F22551BAA
:1046C000AF403C43601E84411C43002100259CE612
:1046D000381C20381A1CC240101C202F5ED04022EB
:1046E000D71BBB405A461A43531E9A410243002728
:1046F000DFE6002D3CD01B4DAA4500D194E080257B
:104700002D047F422943382F00DDADE01F2F00DD4F
:104710002CE12025ED1B081C261CA840FE40AC40C7
:104720000643651EAC413443F9405D462C1BA3454E
:1047300092415B1A5242991A55466646C0E6131CCE
:104740003B43141C002B00D0BEE6002700220025AE
:1047500000210024E8E65A461A43531E9A41D2B279
:10476000002313E7FF070000FFFF7FFFFFFF0F801D
:104770000D1C254358D0FF43002F51D1041BA345E6
:104780009241591A5242891A5546664698E6964809
:10479000854200D0DDE638E6002792E70023A1E756
:1047A000081C2043002D00D0C0E0002800D1FBE011
:1047B0005846184300D128E658460219A242A4419F
:1047C000644259180919141C0A0200D41DE6874BCB
:1047D0000125194019E6081C2043002D39D1002875
:1047E0006DD15946194300D1BDE0191C5C4666469F
:1047F0000BE6051C2A1CABE7604620381A1CC24099
:1048000060469146202800D1ABE04022121A934026
:104810005A461A43531E9A414B461A430023B5E6A3
:10482000714DAA4500D06EE7191C5C465546664698
:10483000EBE5002D1ED10D1C254373D0D543002D73
:104840006DD15C445C4592415918524289185546D5
:10485000A3E6002849D15946194300D196E0191C16
:104860005C466646604DD0E50C43611E8C41E4B267
:1048700000215AE75C4DAA4554D0554280221004CD
:104880000143382D00DD85E01F2D00DD95E020225D
:10489000501B0A1C84468240201CE840024390467C
:1048A00062469440601E844142461443E9405C44A1
:1048B0005C459241CB185242991855466DE65846D0
:1048C000184300D1A1E55846271ABC429241C81AA4
:1048D0005242801A02026AD55846041BA3459241EF
:1048E000591A5242891A66468FE55846184336D0FF
:1048F0004807E40804438020C9080003014208D0A7
:10490000DD08054205D15946CA085C071443291C35
:104910006646630FC9001943E400334D75E5324A1A
:104920009245AED1191C5C4655466EE5002837D03D
:104930005846184313D080254807E408C9082D03BA
:1049400004432942E5D0D8082842E2D15D46EA086E
:104950005C071443011CDCE70023002473E5224DAF
:1049600053E5002354E700270022F1E63D1C203DDB
:104970000A1CEA40151C202F31D04026F71BB940F5
:104980000C43611E8C412C430021CEE6164A0027C1
:10499000151CDDE60C43611E8C41E4B2002186E764
:1049A000191C5C46104D30E5191C5C462DE5031CB6
:1049B0003B43D8D0011C3C1C27E520204042401935
:1049C0000A1CC2409046202D0BD04020451BA94018
:1049D0000C43611E8C4145462C43002167E70021B2
:1049E000CEE70021F4E7C046FF070000FFFF7FFF8E
:1049F000F0B5564644465F464D46F0B41F1C0B03C7
:104A00001B0B98464B0087B0041C81465B0DC80FFA
:104A1000161C9A460090002B51D06A4B9A4531D013
:104A20008022414652030A43630FD2001A43664B69
:104A300090460025E20091469A44002402953B03EB
:104A40001B0B9B46FD0F7B00311C5B0D019560D05D
:104A50005C4A934254D08021584649030143720F67
:104A6000C9001143584A8B469B18F1000020009A58
:104A700004436A4003920F2C00D9ADE0534EA400CA
:104A80003459A746404604436ED10021022508242C
:104A9000884689460295D2E7009C0298C34649465B
:104AA0000194022864D0032800D1ABE2012800D091
:104AB00038E2019A002402400025A14660E0434606
:104AC00023434AD04046002800D1C0E101F038FB22
:104AD000031E272B00DDB3E128210D1A211C083B02
:104AE0004246E9409A400D1C1543221C9A40A846B4
:104AF0009146374B00251B1A9A46002402959EE7E3
:104B00005A4616430320002EB1D1B346002102209D
:104B1000ADE75A4632431BD05B46002B00D18AE1F9
:104B2000584601F00DFB272800DD7DE12822171AE9
:104B3000011C321C08395B46FA408B40171C1F438E
:104B4000331C8B40BB46191C214B1B1A00208EE7DF
:104B50000027BB460021012089E70020012504240D
:104B60008046814602956AE703250C24029566E794
:104B7000019C0394039D01222A400024114DA1466B
:104B8000002000212403260B0C0D2405114B344377
:104B90002D0523402B435B005B08D207191C4846B8
:104BA000114307B03CBC90469946A246AB46F0BDC7
:104BB0000022802424039146024DE1E700240025D1
:104BC000A146DDE7FF07000001FCFFFF306F00009A
:104BD0000DFCFFFFFFFF0F805546ED1A0495D845E9
:104BE00000D953E100D14EE1049C0025013C4E4622
:104BF00004944746A946584603020C0E1C4309027A
:104C0000250C23041B0C0091381C291C0193FFF771
:104C100067FA019983464143381C8A46291CFFF7ED
:104C2000A3FA330C090419438A450CD95B460919C8
:104C3000013B8C4200D947E18A4500D844E1022279
:104C40005242934409195346CB1A181C291C984602
:104C5000FFF746FA071C0198291C78438246404614
:104C6000FFF782FA36040B04360C33439A4509D910
:104C70001B197A1E9C4200D924E19A4500D821E1F3
:104C8000023F1B195E4632041743380CBB46009E98
:104C9000009F51463F0C32045B1A5946BA46120C2B
:104CA0000F043F0C904651467A434F4341464143DF
:104CB00056467043CF19160CBE19B14202D980274F
:104CC0007F02C019310C12043604120C4018B618B9
:104CD000834200D2C4E000D1BEE0191A4846861BC8
:104CE000B145BF417F42CF1BA74200D113E1291C30
:104CF000381CFFF7F5F9019902904143381C8946A9
:104D0000291CFFF731FA330C0904194389450CD9E2
:104D1000029B0919013B8C4200D9FFE0894500D86C
:104D2000FCE0029F0919023F02974F46CF1B381C37
:104D3000291C0597FFF7D4F9071C0198291C784313
:104D400081460598FFF710FA36040904360C0E4325
:104D5000B14509D936197B1EB44200D9E0E0B1450E
:104D600000D8DDE0023F3619029D4946761A290433
:104D700039430B0457460A0C1B0C40464546584322
:104D800055437B437A43EB18070CDB199D4202D94C
:104D900080256D0252191D0C00041B04000C5219D1
:104DA0001B18964235D300D1FCE001231943049E21
:104DB000994FF519002D00DCA1E0480709D00F2319
:104DC0000B40042B05D00B1D8B42894149428B447B
:104DD000191C5A46D20107D5904B5C46049E802789
:104DE0001C40FF00A346F5198D4B9D427ADD039CC4
:104DF0000122224000248B4DA146C1E680242403D9
:104E0000474627424CD13C432403240B009A854D4E
:104E1000B6E63619481EB4425ED9011C9642C4D18A
:104E2000009E9E42C1D1C2E7031C283B311C994021
:104E30008B46002188E6301C01F082F9203072E6B2
:104E4000283B211C994000228846914651E6201CAF
:104E500001F076F920303BE60021B14500D33DE773
:104E6000009F5A46B944B945BF417F423F19FB18DC
:104E7000013A9C421ED2984200D97EE000D1B5E0B2
:104E8000191A93462AE7894500D8ADE648464646B2
:104E900042467708D3074608C0071E438146AAE664
:104EA0005846204212D1044324032A1C240B89466D
:104EB0005C4D65E6A342E3D1009F4F45DBD9211A43
:104EC00093460BE7171CDDE69B46BCE63C432403F8
:104ED000240B009A534D53E6B24259D800D18AE0D0
:104EE000011C62E75F46C9087B07039E0B437C02F7
:104EF0006D0501229946240B6D0D324040E64A4B68
:104F0000049FDB1B382B10DD039C01222240002470
:104F10000025A14634E60121494248E7029304E70F
:104F20001F1C21E7019C039441E71F2B40DC3F48F5
:104F3000049F0C1C3A1858469140DC409040204396
:104F40000A1C511E8A41011C11435A46DA40131CA7
:104F5000480709D00F220A40042A05D00A1D8A42B8
:104F6000894149425B18111C1A0234D5039C012265
:104F7000224000240125A14602E6009F0221494269
:104F8000B9448B44B945894149420919CB18A4E673
:104F9000009D881E6900A942AD416D422C19361949
:104FA00000913AE7002B00D033E70024009437E764
:104FB0001F4A049C5D46121BD5402A1C202B1FD083
:104FC0001C4E5F46A3199F403B1C19434B1E994141
:104FD00011430023BCE75A07C9080A43039F9146BF
:104FE0005B0201221C0B3A400025C9E54E45C4D89E
:104FF0009346002172E6009F9F42C9D3011C0FE730
:105000000023E2E7802424035F463C432403240B6F
:10501000019A8946034DB3E5FF030000FFFFFFFE41
:10502000FE070000FF07000002FCFFFF1E04000057
:10503000E2FBFFFF3E040000F0B55F4656464D46DA
:105040004446F0B40D1C041C8046E80F814618034A
:105050000F03000B3F0B83B084461B4800974900A9
:105060005E00DF0F490D9246760DBB4681420CD0A3
:105070001548864210D00120B14215D003B03CBC87
:1050800090469946A246AB46F0BD009F01202743BB
:10509000F4D10D488642EED1604602430120002A39
:1050A000ECD10120B142E9D1009B6345E6D1D04566
:1050B000E4D1D94506D00029E0D11C43201C441E70
:1050C000A041DBE70020D9E7FF070000F0B55F460D
:1050D00056464D464446F0B4CD0FDE0FAC461D0398
:1050E0002D0BB146374E0F034C00AB465D0080469A
:1050F0003F0B640D92466D0DB44232D0314EB54235
:1051000035D0002C0ED1384341424141081C002DBE
:105110000BD0002919D1CC452DD06546684201231A
:10512000184318E0002DF6D1281C59460A43534273
:105130005341002806D1002BEDD06346584201238D
:10514000184308E00020002B05D14A465042504148
:105150004042012318433CBC90469946A246AB46C8
:10516000F0BD3E1C0643C9D002204042F3E75E4634
:105170001643C6D0F8E7AC4207DC0BDA614648427A
:105180004841404201231843E5E766467042012347
:105190001843E0E75F450AD80ED000205F45DAD219
:1051A000654668426841404201231843D3E762469E
:1051B000504201231843CEE7D045F8D80020D0450F
:1051C000EED3C8E7FF070000F0B556464D4644460B
:1051D0005F46F0B40D1C83B0041C0190E80F8146BB
:1051E00018030F03000B3F0B844635480097490016
:1051F0005E00DF0F490D9246760DB846814234D0ED
:105200002F48864236D0002918D0002E1FD1341CDA
:1052100067463A4353425341002C1FD00020002BD5
:1052200005D142465042504140420123184303B049
:105230003CBC90469946A246AB46F0BD009804435C
:1052400060426041041C002EE2D00028E9D1C14533
:1052500015D04F46784201231843E8E7002BF6D0DB
:105260004B46584201231843E1E7009F02202743A1
:10527000DDD1C5E7674602201743D8D1C3E7B14265
:1052800004DD4A46504201231843D0E7B14207DB10
:1052900000986045E4D80AD0009F00206745C6D238
:1052A0004F4678427841404201231843BFE7019AB4
:1052B0005245D5D8019A00205245F1D3B7E7C046F0
:1052C000FF070000F0B5564644465F464D46F0B431
:1052D0001F1C0B031B0B9A464B0087B0041C804617
:1052E0005B0DC80F161C02938146002B68D0694BDA
:1052F0000299994232D08022534652031A43D20077
:10530000630F1A439246644AE0008918804602916E
:10531000002400253B031B0B9B467800FB0F321C2F
:10532000400D039300D175E05A4B984269D080221A
:10533000594652030A43730FD2001A43564B934601
:10534000C018F200002303994E4671401C430F2CF5
:1053500000D9A9E0514EA4003459A74653461C4336
:1053600000D087E00025AA46A84608240225D1E7F8
:105370004946022D6CD0032D00D117E2012D00D03B
:1053800058E10D40EDB20024A9460023A0460020BC
:10539000002125030A0D1C052D0B1205404B2A4345
:1053A000134023435B004C465B08E207191C404650
:1053B000114307B03CBC90469946A246AB46F0BDAF
:1053C0005346234350D05346002B00D184E150462E
:1053D00000F0B6FE031E272B00DD76E128210D1A12
:1053E000211C083B5246E9409A400D1C1543221CE3
:1053F0009A40AA4690462B4B00241B1A0293002584
:1054000088E75B461E430323002E9CD1B34600224F
:10541000022398E75B46334321D05846002800D149
:105420004EE100F08DFE272800DD42E128210F1A11
:10543000021C311C083A5B46F94093400F1C1F4385
:10544000331C9340BB461A1C164B181A00237AE7EC
:1054500001230B4000249946A0460E4B97E70027F6
:10546000BB46002201236EE7002104248A468846B9
:1054700001254FE70C2403254CE700258024A9468D
:105480002403A846034B82E7DA46904603991D1C85
:105490006FE7C046FF07000001FCFFFF706F0000D0
:1054A000FFFF0F800DFCFFFF029F160C38180490C1
:1054B0004046070C0004000C1204120C031C53435A
:1054C000041C3D1C7443554398463B1C73436419AC
:1054D000A44644460293230C63449D4204D9029D92
:1054E000802464022D1902951D0C039545462C0459
:1054F0001B04240C1C1905945C46230C051C584302
:105500002404240C8446381C604365435F43814671
:10551000CC44280C6044BB46814502D980277F02D9
:10552000BB442D04070C2D0C000440195546BC4605
:105530002F04E3448446280C3D0C2F1C5743B846E7
:105540002F1C77434243B94647463F0C9144BA4625
:10555000D14446434A4502D980225202B6184F46EA
:105560003A0CB6183A0447463F043F0CB8462F1C85
:1055700067435D434443584365190190380C2D1827
:105580004244B846AC4204D9019880235B02C0185B
:105590000190039C029F201C6044C0196045A441F7
:1055A00047466442A4462B043C049946240C4C44D0
:1055B000A046D8448018C246E244904292415746E1
:1055C00052429146F219E245BF417F424B46BC46EA
:1055D000D845BF41D4187F4263461F432D0C7F1925
:1055E000B24292414C45AD4152426D421543019E3B
:1055F0007D19AB19E20D5B02059F134342023A434A
:105600009A46531E9A41C30D101C1843640220434E
:1056100080465046C0010DD5454601225646049CA1
:105620006B082A401A43F30701341A43760804949E
:105630009046B246049E634FF319002B61DD40464D
:1056400040070BD00F2244462240042A06D042468F
:105650000432424580414042824490465546ED0125
:1056600007D5594B5646049F80201E40C000B246C5
:105670003B18564A934200DDEAE644465546E208A6
:105680006807104301226C025B050A408046240B28
:105690005B0D91467BE6DA4690461D1C69E6802448
:1056A0002403574627421CD13C432403240B484B78
:1056B0006DE6031C283B311C99408B460022C3E653
:1056C000301C00F03DFD2030ADE6283B211C994008
:1056D00000228A4690468EE6201C00F031FD2030E4
:1056E00078E65846204207D1044303992403240B4B
:1056F00089469046364B4AE63C432403240B344B00
:1057000045E6344B049E9B1B382B06DD01230B40E2
:1057100000249946A046002339E61F2B25DC049C73
:105720002D4D46466019524644468640DC40824034
:105730005746301C2243DF40441EA04102433B1C1D
:10574000540709D00F201040042805D0101D9042A6
:10575000924152429B18021C1D021AD501230B4094
:1057600000249946A046012311E61C48049C554696
:10577000001BC540281C202B16D0194E5746A219D5
:1057800097403A1C43461A43531E9A410243002352
:10579000D6E758075B02D2081C0B01230B401043CD
:1057A000994680460023F2E50022EBE7802424039B
:1057B00050460123044319402403240B8946044B1B
:1057C000E5E5C046FF030000FFFFFFFEFE07000007
:1057D000FF07000002FCFFFF1E040000E2FBFFFFCA
:1057E0003E040000F8B55F46564644464D46F0B4C8
:1057F0000C034D00CF0F610A440F2143C40018036E
:10580000DE0F8046B44646465800760A530F3343AF
:10581000D600C94A6D0DBA46400DB346904200D13C
:10582000EBE06246012672409446674500D1A1E054
:105830002F1A002F00DC08E100283BD158461843FE
:1058400000D0E8E0600709D00F232340042B05D0E7
:10585000231DA342A441644209191C1C0A0200D45E
:1058600079E0B54B6A1C9A4200D109E1B34BE408D8
:1058700019404807044349025205012750460B0BC3
:10588000520D0740002000211B03201C1C0B0B0D98
:105890001B05AB4D2343520552081D4015436D00B7
:1058A0006D08FF07291C39433CBC90469946A24627
:1058B000AB46F8BDA0488542C4D080200004034315
:1058C000382F00DDF0E01F2F00DD24E12020C01B79
:1058D0001A1C5E468240FE40324394465A4682403D
:1058E000101C421E9041FB40624602431F1CA21A3C
:1058F0009442A4416442C91B091B141C0A02A1D58D
:1059000049024F0A002F00D1C9E0381C00F018FCF2
:10591000021C083A1F2A00DDBCE02821231C091ABA
:105920009740CB401F439440954200DDAEE0551BAD
:10593000691C1F2900DDDDE01F22551B3B1C221CBA
:10594000AB40CA40AC40651EAC411343CF401C4342
:10595000391C002576E74807E4086A050127564602
:10596000C908520D37400443734B9D4249D0090387
:105970000B0B87E72A1A9446002A00DC9BE00028DC
:1059800055D06D48854200D15CE780200004034378
:105990006046382800DD09E11F2800DD50E162463D
:1059A0002020801A1E1C8640B1465E46D6404A46DC
:1059B00032435E4686409046301C421E904142462D
:1059C00002436046C3401219A242A44164425918DE
:1059D0000919141C080200D434E7574B01359D42C5
:1059E00000D142E1554B60081940012323401C1CA3
:1059F0000443CB071C43490824E71E4300D014E7A7
:105A00000FE70B1C234300D1CFE180231B030B4383
:105A10001B031B0B36E7013F002F66D15E46A21B1E
:105A20009442A4416442C91A091B141C66E75846F3
:105A3000184300D106E701267642B44460460028A8
:105A400000D0CAE05E463219BEE7002F7AD1681C4A
:105A50004005400D012800DCE3E05A46A21A9442BA
:105A6000BF41C81A7F42C71B3E0200D492E058468D
:105A7000041BA3459241591A52428F1AE24641E74C
:105A8000534601271F4000240023FBE62B49AD1A93
:105A90003940D7E6271C28388740002444E7201CDB
:105AA00000F04EFB203033E75A461A43531E9A410A
:105AB000D2B200271BE7002A00D0E1E0681C4605AF
:105AC000760D012E00DC91E01B4DA84200D1F7E0DD
:105AD0005E463219A242A441644259180919CC0702
