:1000000000800020E5180000711800007118000041
:1000100000000000000000000000000000000000E0
:100020000000000000000000000000007118000047
:1000300000000000000000007118000039190000E5
:10004000711800007118000071180000711800008C
:100050007D1B00007118000071180000D11800000D
:1000600071180000BD170000711800007118000021
:100070005D07000071180000CD1700007118000026
:10008000711800007118000071180000711800004C
:1000900000000000711800007118000071180000C5
:1000A000711800007118000071180000711800002C
:1000B0000000000010B5064C2378002B07D1054B3B
:1000C000002B02D0044800E000BF0123237010BDC4
:1000D00030030020000000003870000008B5084B15
:1000E000002B03D00748084900E000BF0748036819
:1000F000002B03D0064B002B00D0984708BDC0460C
:1001000000000000387000003403002024030020A9
:100110000000000037B5114C051C201C00F082FDCA
:10012000201C012101F02FFB201C0D4901F030FBA8
:10013000201C012101F022FB201C23211E2201F0A2
:100140001AFB2A1C01A8074903F006FF01A9201C7D
:1001500001F010FF201C00F0A7FE37BD5C0300205B
:10016000906400004449000010B50A4C3221201C64
:10017000002200F09FF8201C00F084F802213C22AD
:100180000548012300F0BCFD044B187801F0BAFCCF
:1001900010BDC046500300205C0300200800002072
:1001A00010B501F0D7FB0E4B0E4C1A68811A0E4A9F
:1001B0001268914206D318602068FFF7ABFF2368EE
:1001C000013323602368632B01DD00232360074B89
:1001D0001B78002B02D02368013B236010BDC04672
:1001E000580300204C03002004000020840300205A
:1001F000012110B54942084800F0FAFC074C0321E0
:100200000A1C0423201C00F037F8201C0449054A6E
:1002100003F0D6FC10BDC0465C0300205003002054
:10022000830200000000002010B5002810DAC0B2E0
:100230000F230340083B0E4A9B0803219B009B1899
:100240000840DA698840FF2181408A43DA610DE085
:100250008208084B9200D2180324C0239B00204040
:10026000D158A040FF248440A143D15010BDC046C6
:1002700000ED00E000E100E003390171427183719B
:1002800070477047036802211A880A431A8002687F
:10029000D37B5BB2002BFBDB7047016801230B8033
:1002A0000368DA7B52B2002AFBDB1A88D107FCD440
:1002B00070470000F0B55D4E8DB006AD039102921F
:1002C00001952B1C311C05AD041C85C985C3032277
:1002D000281C03F081FD09AB1A1C103683CE83C2A3
:1002E0002279534E9100C95801232160A95C1F2235
:1002F00011401F1C8F40391CF16721794D4F695CFB
:100300000A40C021934049007B502379E856FFF70B
:100310008BFF494B494A196A0A401A621A6A8021BE
:100320008A431A621A6A40218A431A621A6A0221AF
:100330000A431A6262790F231A4080235B001A4332
:100340003F4B9A605A78D209FCD161790F22114053
:1003500084229203A0791143F82200025201024044
:100360001143374A51605A78D209FCD16179F022A1
:10037000120109021140227906A892008258114305
:100380008022D20111432E4A89B251805A78D20973
:10039000FCD1201CFFF781FF236860211A88029F8F
:1003A00092B21A8023681A880A431A8023680221AD
:1003B0001A880A431A80002F07D02248039903F0B5
:1003C0005FFC2668013880B230832268D37B5BB241
:1003D000002BFBDB23790126EB5C1F2714493B40F4
:1003E000301C9840C86723791248EA5C331C3A40B5
:1003F00093401A1CC023B340C2502379E856FFF73C
:1004000013FF0299002905D02379EB5C1F40094BAB
:10041000BE401E60236810215A7B0A435A7322682B
:10042000D37B5BB2002BFBDB0DB0F0BD9C64000006
:1004300004E100E000E100E000080040FFFCFFFFF5
:10044000000C004000093D00002070477047F8B5DF
:10045000051C0F1C161C0024B44208D02B68395D03
:100460001B68281C9847002801D00134F4E7201CA1
:10047000F8BD7047031CFC33196ADA69914203D056
:100480001B6AC018007E01E0012040427047031C37
:10049000FC33D8691B6AC01A01D50130FF307047A0
:1004A000F7B50193FA239B008360134B8026002548
:1004B00076000833041C0F1C4560291C0092036061
:1004C000321C183003F091FC231C9022FC335200A4
:1004D000DD61A0181D62321C291C03F086FC8722F6
:1004E0009200A3185D60019A9D60009B2761A5752D
:1004F000201C23756275FEBDB864000070B50D49FF
:10050000041C006901F0DCFF206901F071FE18266F
:10051000207D331C4343084D0821EB18595601F048
:100520007BFC607D08214643AD19695601F074FCDF
:1005300070BDC046A0860100906A00008A23872211
:100540009B009200C154831800225A609A600123D4
:1005500083757047031CFC335A6810B501329C68E0
:10056000D2B2A24202D05C6801555A6010BD10B5EB
:10057000827D00239A420DD08724A400021954687A
:1005800092680134E4B2944204D02130FF30FFF786
:10059000E1FF0123181C10BD031CFC3399685A6845
:1005A000914206D09A68805C9A680132D2B29A6011
:1005B00001E001204042704770B500228A23827515
:1005C0009B00041C0E1CC15C006901F04DFE00285C
:1005D00005D12069032101F031FE022523E090239B
:1005E0005B00E01887239B00E21851689368CB1AE0
:1005F00001D50133FF33002B0ED02569FFF7CCFF67
:10060000C1B2281C01F05FFE0028E8D12069032157
:1006100001F014FE032506E01D1C002E03D0206906
:10062000032101F00BFE281C70BD08B50121FFF766
:10063000C3FF08BD08B51830FFF7AEFF08BD38B5D9
:10064000041C006901F05DFE002800D184E02069EF
:1006500001F065FE00280ED1206901F06AFE002835
:100660001FD0206901F060FE00281AD0206901F037
:1006700065FE002815D1206901F0D6FD206903210F
:1006800001F0DCFD8C239B00E558002D04D023688D
:10069000201C1B699847A847FC340023E3612362B0
:1006A0005AE0206901F045FE031C2069002B19D097
:1006B00001F0BAFD2069032101F0C0FD206901F0BD
:1006C0003DFE002848D087229200A31800225A60DD
:1006D0009A600123A3758B239B00E35893423BD080
:1006E000984739E001F016FE002835D0206901F066
:1006F00025FE002816D087239B00E21851689368D6
:10070000CB1A01D50133FF33FF21002B05D09022F6
:100710005200A018FFF740FFC1B2206901F0E4FDCC
:10072000A07519E0231CFC33DA691B6A0132D2B2CE
:1007300020699A4202D101F06FFD09E001F003FE49
:10074000011C201C1830FFF705FF206901F06CFD2B
:100750002069032101F072FD38BD000008B5024890
:10076000FFF76DFF08BDC0468803002008B50348A9
:10077000034914221523FFF793FE08BD88030020C8
:100780004C0A002070B5457E04AC2488022D09D0A7
:10079000032D10D0012D00D08DE00589013DAA1A4E
:1007A00012B20CE04589013DAA1A058912B2ED1A70
:1007B000691A09B27FE04589ED1A691A09B2002A5F
:1007C00000DABDE00826855F954200DCB8E000292C
:1007D00002DACB181BB200214089CD1806B2B5420F
:1007E00001DD431A1BB2002B00DCA9E0C9B2C80826
:1007F000544DC001281882180720DBB2014020D0D8
:100800000820411A5048C9B2405C8B4203D2CD1A2D
:10081000FF262E413040012C06D0002C07D0022CA0
:1008200009D11578684005E01578284302E015786D
:100830008543281C10708B4200D281E05B1ADBB22A
:100840008032072B22D9022C0AD1111C181C0D78DA
:100850000838ED43C0B20D7080310728F7D80CE09E
:10086000651E69424D416D42EDB2101C191C0839DC
:10087000C9B2057080300729F9D8191C0839C9B2E6
:10088000C9080131C901521807210B40002B57D06C
:100890002E49CB5C012C06D0002C07D0022C4FD166
:1008A00011784B4005E011780B4302E01178994331
:1008B0000B1C137044E0002A42DB0A26855F954238
:1008C0003EDD002902DACB181BB200210089CD18C9
:1008D00006B2B54201DD431A1BB2002B30DDD01742
:1008E000400F8018C010174DC0012818411807206C
:1008F000024001209040C2B2012C04D0002C0BD049
:10090000022C1DD113E0013B1BB2581C18D00878F3
:10091000104308700131F6E7D243D2B2013B1BB25B
:100920005E1C0DD00878104008700131F6E7013BDD
:100930001BB2581C04D00878504008700131F6E70B
:1009400070BDC046190000201100002009000020E1
:1009500070B5457E04AC2488022D08D0032D0FD03D
:10096000012D5CD10589ED1AAA1A12B20CE0058995
:10097000013D691A458909B2ED1AAA1A12B24EE070
:100980004589013D691A09B2002900DABEE00A264C
:10099000855F8D4200DCB9E0002A02DAD3181BB271
:1009A00000220089D51806B2B54201DD831A1BB2B8
:1009B000002B00DCAAE0C817400F4018C010544DAF
:1009C000C001281882180720014001208840C1B2C8
:1009D000012C05D0002C0DD0022C00D096E015E0A3
:1009E000013B1BB2581C00D190E0107808431070F6
:1009F0000132F5E7C943C9B2013B1BB25E1C00D10D
:100A000084E01078084010700132F5E7013B1BB21A
:100A1000581C7BD01078484010700132F6E700294E
:100A200074DB0826855F8D4270DD002A02DAD31858
:100A30001BB200224089D51806B2B54201DD831AE7
:100A40001BB2002B62DDD2B2D008314DC001281894
:100A500041180720DBB202401FD00820821A2D481F
:100A6000D2B2805C934203D2D51AFF262E41304089
:100A7000012C06D0002C07D0022C09D10D7868403B
:100A800005E00D78284302E00D788543281C0870A6
:100A900093423BD39B1ADBB28031072B22D9022C25
:100AA0000AD10A1C181C15780838ED43C0B215701D
:100AB00080320728F7D80CE0651E6A4255416D4226
:100AC000EDB2081C1A1C083AD2B205708030072A11
:100AD000F9D81A1C083AD2B2D2080132D2018918C8
:100AE00007221340002B11D00B4AD35C012C06D0F7
:100AF000002C07D0022C09D10A78534005E00A786F
:100B0000134302E00A789A43131C0B7070BDC04671
:100B1000190000201100002009000020F8B5061C73
:100B20000D1C141C1F1C00295EDB00F040FE8542DA
:100B30005ADA002C58DB301C00F03CFE844253DAB9
:100B4000301C00F023FE022846D13389013B5D1B97
:100B500073892DB2013B1C1B24B206E0012804D18D
:100B60003389013B1B1B2C1C1DB2012F14D0002FFD
:100B700021D0022F38D1E3175B0F1B19DB101BB2FA
:100B8000DB010722ED181440184B0122A240141C6F
:100B90005A5D54405C5527E0E3175B0F1B19DB10CF
:100BA0001BB2DB01ED180722104B1440A7405C5D1F
:100BB00027435F5518E0E3175B0F1B19DB101BB2CF
:100BC000DB010722ED181440084B0122A240141C3F
:100BD0005A5DA2435A5507E00328BFD17389013BF0
:100BE0005B1B251C1CB2C0E7F8BDC04619000020E5
:100BF00038B520220D1C8021041C00F0D7FB084BC7
:100C0000E21C08332360FF23D377E21DD377621DF4
:100C1000D377221DD377A31DDD77201C38BDC046B6
:100C2000E064000008B5802202480021920003F031
:100C3000DCF808BD19000020F7B5031C0833DB7F82
:100C4000061C0F1C002B03D0104800F0FBF91CE021
:100C500008248025331D01931F201856002101F020
:100C6000ABF8391CF31C1F2029401856002900D06E
:100C7000012101F0A1F8019B1F2018560121013C20
:100C800001F09AF86D08002CE4D1F7BDC4050020EE
:100C900070B5C31CDB7F041C5BB20E1C01331AD081
:100CA000C51D1F202856012101F086F8631D1F2055
:100CB0001856002101F080F81F202856002101F06D
:100CC0007BF8201C311CFFF7B7FF1F20285601219D
:100CD00001F072F810E0094D0134E17F281CFFF7A4
:100CE0002DFC0021281CFFF742FC281C311CFFF7BB
:100CF0003EFC281CFFF799FC70BDC046880300200D
:100D0000F0B585B00193831CD977431CDA77C71CF3
:100D10001F23FB56041C0D1C01332CD0431D1F2028
:100D20001856012100F0EEFF261CE31D1F20185667
:100D30000121083600F0E6FFF37F002B0AD11F20C7
:100D40003856012100F0DEFF231D1F201856012117
:100D500000F0D8FFF37F002B10D0504E301C00F075
:100D60002DF96A46002353731373301C4C49039AC0
:100D700000F04CF902E04B48FFF7C0FB019B002B51
:100D80001CD0A61D1F203056002817DB012100F0C3
:100D9000B9FF1F200121305601F00EF8012000F0AC
:100DA000DFFD1F200021305601F006F80A2000F078
:100DB000D7FD1F203056012100F0FEFF201CAE2180
:100DC000FFF766FF201CD521FFF762FF201C802162
:100DD000FFF75EFF201CA821FFF75AFF201C1F21F0
:100DE000FFF756FF201CD321FFF752FF201C0021E4
:100DF000FFF74EFF201C4021FFF74AFF201C8D21EA
:100E0000FFF746FF201C1021012D00D01421FFF711
:100E10003FFF201C2021FFF73BFF201C0021FFF794
:100E200037FF201CA121FFF733FF201CC821FFF74B
:100E30002FFF201CDA21FFF72BFF201C0221FFF7D8
:100E400027FF201C8121FFF723FF201C8F21FFF7A4
:100E50001FFF201CD921FFF71BFF201C2221012D81
:100E600000D0F121FFF714FF201CDB21FFF710FF5A
:100E7000201C4021FFF70CFF201CA421FFF708FFD6
:100E8000201CA621FFF704FF201C2E21FFF700FFE6
:100E9000201CAF21FFF7FCFE05B0F0BDC40500200B
:100EA00000127A0088030020F8B52121041CFFF706
:100EB000EFFE201C0021FFF7EBFE201C7F21FFF737
:100EC000E7FE201C2221FFF7E3FE201C0021FFF794
:100ED000DFFE201C0321FFF7DBFEE31CDB7F5BB2A0
:100EE000013321D0E61D1F203056012100F064FFA0
:100EF000631D1F201856012100F05EFF1F20305691
:100F0000002100F059FF0025184A201C515DFFF711
:100F100093FE013580239B009D42F5D11F20305662
:100F2000012100F049FF1FE00025114F631CD97F0C
:100F3000381CFFF703FB3B68381C1B6840219847AF
:100F40000026AB19094A9BB2D15C381C0136FFF769
:100F50000EFB102EF5D11035381CFFF766FBADB235
:100F600080239B009D42E0D1F8BDC04619000020BF
:100F700088030020437A002B04D18372C372C360BC
:100F800001234372704730B585B0041C02AD006880
:100F90000291039201F008F96B79E179227A0093CA
:100FA0002068002301F068FA29792068029A01F08C
:100FB000CBF8206801F0EEF805B030BD70B5041C28
:100FC0001826FFF7D7FF2079331C43430D4D082126
:100FD000EB18595600F020FFA079331C4343082139
:100FE000EB18595600F018FF607908214643AD19F7
:100FF000695600F011FF044B201C06CBFFF7C3FF1E
:1010000070BDC046906A0000BC05002007B5837A19
:1010100000910192002B0DD09A0706D5EFF31083B3
:101020005A425341C37272B604E0DA0702D582898C
:10103000034B9A600099019AFFF7A5FF07BDC046D0
:101040000018004008B5006801F0B7F808BD0000BE
:10105000094B0A4A0A491A6000225A711A71094B4F
:1010600019601621197118219971172159710121DF
:101070005A72D9711A727047BC05002000093D00F0
:101080005C0A0020C4050020F0B587B01E1C0CAB24
:10109000071C151C00201B5E0DAA12880C1C591B76
:1010A0000492CA1789185140321BD01712184240B7
:1010B000914208DD321C01211E1C131C221C0191CF
:1010C0002C1C151C01E000220192B44205DD2A1CF3
:1010D0001D1C131C221C341C161C321B92B20292C3
:1010E0005A1BD117501848400590029802B2D10FF0
:1010F0008A18521092B200929D4202DA01210391A5
:101100001FE0154A03921CE001983B6800281BD0A1
:101110009969381C8C46221C291C049BE0470098C6
:101120000599431A9BB29AB2009212B2002A06DACB
:10113000029903985B182D189BB22DB200930134CD
:1011400024B2B442E0DD05E09A69381C9446211CC3
:101150002A1CE2E707B0F0BDFFFF0000704710B5A2
:1011600004682469A04710BD37B506AC258804681B
:101170000095A46BA04737BD37B506AC2588046839
:101180000095E46BA04737BD73B506AC0025665FDC
:1011900007AC2588046800960195246CA04773BDB0
:1011A0007047F0B585B01F1C0AAB1B88161C039353
:1011B0000368013F5B69041C0D1CBF199847039A23
:1011C00023683FB2019200979F6A201C291C321CA1
:1011D0002B1CB8472368201CDB6A984705B0F0BD7C
:1011E000F0B585B01F1C0AAB1B88041C0393036871
:1011F0000E1C5B69151C9847039922687B1E0191A0
:1012000000959B19976A201C311C2A1C1BB2B847F9
:101210002368201CDB6A984705B0F0BDF0B587B0A5
:1012200003930CAB0E1C171C0022995E0DAB1B88A0
:10123000049105930368041C5B699847351C039B64
:10124000F218236895420BDA0599201C00911A6A5E
:10125000291C9446049B3A1C0135E0472DB2EEE769
:10126000DB6A201C984707B0F0BD37B50C24035F3C
:101270000E25445F0268019100940021146C0A1C41
:10128000A04737BDF0B585B002930AAB0E1C002114
:101290005F5E0BAB1B88151C0393029B041C02684A
:1012A0009E420BD1BD4202DD2B1C3D1C1F1C03992D
:1012B0007B1C5B1B00911BB2976B0EE0BD4211D1F2
:1012C000029B9E4202DD331C029E0293029B039905
:1012D000013300919B1BD76B1BB2201C311C2A1CB5
:1012E000B8470FE053699847039A23680192009723
:1012F0009F6A201C029B311C2A1CB8472368201CB3
:10130000DB6A984705B0F0BDF0B585B01F1C0AAB8D
:10131000151C0E1C0022995E0BAB1B8803910293D7
:101320000368041C5B6998470299236800915A6A14
:10133000201C9446311C2A1C3B1CE0470299236860
:10134000039A0091596A013A52198C46201C311CAB
:101350003B1C12B2E047029A23680092196A201CD3
:101360008C462A1C311C039BE047029A2368013FEC
:101370000092BE1931B21F6A201C2A1C039BB84779
:101380002368201CDB6A984705B0F0BD7047032333
:101390001940417603894289012904D0032902D0EA
:1013A0008381C28101E08281C381704710B50A4CFC
:1013B0004281C2810122002308340181818151428E
:1013C000436004604376038243820276C182818255
:1013D0008276C376C36110BD38650000F0B595B064
:1013E0001E1C1AAB1B88041C0A931BAB1B8806919E
:1013F00004931CAB1D78C3690992002B00D0B1E0A7
:101400000C20235E8B4200DC36E10E21635E9342AA
:1014100000DC31E106236B43069AD318002B00DC75
:101420002AE10998EB00C318002B00DC24E1E37EDD
:10143000002B03D1AF2E01D90136F6B22368201C50
:101440005B69984705235E4300210F960D93089131
:10145000089A0F9853B2894A06991218D25C9BB227
:1014600007936B4389B20B92099ACB1896B29BB241
:101470000E93331C08339BB205911093371C0C96C6
:101480000B9BDB0714D52068012D09D1079A059B1A
:10149000D118836909B29C463AB2201C0A9B17E016
:1014A0000E9A33B211932BB211B200930A9A19E03B
:1014B000049B0A9883421BD02068012D0AD1079A09
:1014C000059BD118836909B29C46049B3AB2201C43
:1014D000E0470DE00C9B0E9A1BB211B21193049AD7
:1014E0002BB200930192C269201C9446119AE047E6
:1014F0000B9B0C985B080B930137431910997619D5
:101500009BB2BFB2B6B20C938F42B9D1089B0133E4
:10151000DBB208930D9B013BDBB20D93002B97D1FF
:10152000049A0A9B9A4200D1A2E02268012D0AD1B6
:101530000498059900900531156A09B2201C099A92
:101540000823A84794E005216943059B049859188E
:101550002BB2ED0001900095D56909B2201C099AC3
:10156000A84785E01A7A5968B61AF6B21B68F600E1
:1015700076183288F07871791193B378B67905923C
:101580000C9312900D910E96012D06D90E9A4EB223
:1015900053B29BB2B6B2079302E0002307931E1C1E
:1015A0002368201C5B696E439847069880B28619B1
:1015B000B6B2109600260B9006960496129AF3B2D5
:1015C000934255D2099B07989BB20F9333186B43F4
:1015D0000F99109ACB189BB2139308920027069884
:1015E000FBB20C991A18D2B28B423BD2510707D1E9
:1015F000059B0598119A0133125C9BB204920593E6
:10160000049843B2002B22DA2068012D11D10D9AE3
:101610000B9B51B259180E9B79185AB20F9B09B205
:101620009A188369B2189C4612B2201C0A9BE047A4
:101630000DE0089A139B11B21BB20A9A03932BB2C6
:1016400000930192C269201C9446039AE0470498D3
:1016500008994300DBB204934B199BB201370893FE
:10166000BFB2BCE74318DBB201360693B6B2A5E7BA
:101670002368201CDB6A984715B0F0BD9065000018
:10168000F0B5C26987B0041C0B1C002A28D10A29B6
:1016900003D1037E0282DB0029E00D2968D0817E20
:1016A000007E00290DD01025615F062545434D19A8
:1016B0000C26A15F8D4204DD618A2282C20052188D
:1016C00062821225625FA58A02900095E58A102742
:1016D000E15F0195201CFFF781FE227E062343E097
:1016E0000A2908D100230382927A037E5343628A37
:1016F0009B1863823CE00D293AD0157AA94237D372
:10170000517A994234D35D1B5668ED00AD19A97822
:10171000E878002926D0002824D06F79A67E059786
:10172000207E002E12D01027E65FB446059E77B2C9
:10173000791841430C27E65F6144B14206DD002180
:101740002182927A618A4243521862821022A15EFB
:101750001226A25FA68A02900096E68A201C0196B5
:10176000FFF73CFE2A79237E5343228A9B1823826B
:10177000012007B0F0BD018242827047002900D1EC
:10178000012101767047C18281827047407E704797
:10179000C369002904D0002B07D1438A063303E034
:1017A000002B02D0438A063B4382C16170470C2361
:1017B000C05E70470E23C05E7047000008B5024847
:1017C00001F016F808BDC0461008002008B5024810
:1017D00001F00EF808BDC046D4050020F7B5164F3D
:1017E0001649381C00F018FC1549164800F014FC86
:1017F0001549164800F010FC1549164800F00CFC7D
:101800001549164800F008FC154D03260124281C34
:10181000144900F001FC391C0096231C019400229D
:10182000114800F0F1FE0096291C01941F221E238E
:101830000E4800F0E9FEF7BD500A00200008004203
:10184000000C0042540A002000100042580A0020F8
:10185000001400424C0A0020001800425C0A0020DC
:10186000600A0020001C004210080020D40500205F
:10187000124B00221A70DA79D209FCD1104A1149B0
:101880009160114951605178C909FCD10F490C4A46
:1018900051801A7901210A431A715A780F218A431B
:1018A0005A701A7804218A431A70D979034AC909EF
:1018B000FBD1137802210B431370FEE700100040A8
:1018C000000C00400204000002031100034200006B
:1018D00008B5034B1B68002B00D0984708BDC046D5
:1018E000640A002038B50F490F4CA14204D100F022
:1018F00055F800F0F5FA0BE00C4D8D42F7D00023BF
:10190000CA18E818A24204D2006804331060F7E74E
:10191000FEE79042EBD0064B064A9342E7D2002204
:1019200004C3F9E700000020300300203C700000F1
:1019300030030020F010002008B500F02CF800283B
:1019400001D100F01DF808BD014B18607047C0467A
:10195000640A0020014B18687047C046680A0020DE
:1019600070B5041E08D0054B1D681E1C00F012F84F
:1019700033685B1BA342F9D370BDC046680A0020E0
:1019800008B5034B1A6801321A6000F00BFB08BD62
:10199000680A0020704700207047000070B5494A6F
:1019A0001E21536802208B430343474953608B69D0
:1019B000082423438B61454C454B9C829C8A2043E1
:1019C0009882101CDA689407FCD5424A01241470EE
:1019D0001478E50704D53F4C647864B2002CF7DB3B
:1019E00001249460547864B2002CFBDB3A4D394CEE
:1019F0006560547864B2002CFBDB8225354CED0128
:101A00006580547864B2002CFBDB02249C84DC6883
:101A1000E606FCD5314D2E4CE562DD682C4CEE0619
:101A2000FBD5A58C2E4E3543A584DD68284CEE06EB
:101A3000FBD5A58C02263543A584DC682506FCD59C
:101A4000234CE4686606F8D5DC68E506FCD500247E
:101A50009460547864B2002CFBDB224D1D4C656011
:101A600055781C4C6DB2002DFADB1E6A1E4D3540B8
:101A70001D621D6A8026B5431D620323A3601B4BB4
:101A8000636053785BB2002BFBDB00230B72184AB8
:101A90004B728B72CB72174BFF211A60164B174A91
:101AA0001B6812685C01D20E214011439A06520F46
:101AB00012020B1C1343124A1385436880221343FE
:101AC000436070BD00400041000400400C0600006F
:101AD00000080040000C004001050100B905FF7D31
:101AE000040A000000070300FFFCFFFF03060100DB
:101AF000006CDC021C02002024608000206080005A
:101B00000040004218235843174B70B5181816238D
:101B1000C3565A1C26D0102B24D001229A40134BB6
:101B200091B2996059691248914359610168002343
:101B3000051C8B4216D00F489C002458944201D0BB
:101B40000133F6E74A1E93420BD201339A008658BE
:101B50008418043C2660084C1659A218043A1660F2
:101B6000F0E72A6070BDC046906A0000001800408F
:101B7000F40A0020B00A00206C0A0020F8B5002406
:101B8000094B1B689C420DD2084E094FA5003369D2
:101B9000EA591A4204D0074BEB589847EB59336186
:101BA0000134EDE7F8BDC046F40A002000180040FB
:101BB000B00A00206C0A0020314BFA21186810B5D9
:101BC000890002F00FF82F4B0138984224D82E4A92
:101BD0002E4B5060186AC0210002000A090601431A
:101BE00019620024072194601160196A8022090299
:101BF000090A12060A431A62254BFC211A6A0A4393
:101C00001A62196AFC2292010A431A62196AA02216
:101C1000D2020A431A6200E0FEE7201C00210134D0
:101C200000F070F8142CF8D11A4C63785BB2002BDA
:101C3000FADB194B6380194B5A7ED209012AFAD07C
:101C4000E422D2009A803F22DA70597E134AC909F1
:101C50000129FAD0C0235B0100201361907000F0CD
:101C600023F863785BB2002BFBDB0D4A094B5A80EB
:101C70000C4BDA79D209012AFAD041225A7010BDF0
:101C80001C020020FFFFFF0010E000E000ED00E07C
:101C900000040040000C00401E40000000400042D4
:101CA000214000000048004200B5144A517E131C38
:101CB000C9090129F9D00138042813D81969104A33
:101CC0000A401A615A780F218A4301F081FF030507
:101CD00009070300012102E0032100E002210A4379
:101CE0005A700AE01169F0231B050B431361537806
:101CF0000F218B4302210B43537000BD0040004273
:101D0000FFFFFFF010B51824021C201C5043274B86
:101D10001818007A40B2013046D0032944D8081C74
:101D2000211C01F055FF02331121624398569A1885
:101D3000C3011F4852681B189918403102200870CF
:101D40000121914059602FE06243985618499A1832
:101D50005268C3015B1899184031062008700121B0
:101D60009140596099611FE051435A5610485918E3
:101D70004B68D2011118C8184030062404700120A5
:101D8000984048600B49521850600DE062439856E5
:101D90009A18C301064852681B189918403102204E
:101DA000087001219140996010BDC046906A000002
:101DB000004400411044004118235843134AF0B531
:101DC000131808241C5701341FD08256104ED2011C
:101DD0005D6801249019231C8668AB401E420BD11C
:101DE0000E1C771EBE41401934404030A5000478D7
:101DF0000426B4432C430470002903D1054952182A
:101E0000536002E0024E92199361F0BD906A0000A7
:101E1000004400411044004118224243F8B52D4DC2
:101E20000824AA181457031C621C50D0481C002414
:101E30000C284CD801F0CCFE071E1E1E1E1E1E1EB6
:101E40001E0A0A0A0A000124644240E0092902D15C
:101E5000181C002103E00A2904D1181C0221FFF7F5
:101E600051FF23E000240B2931D1181C0121FFF779
:101E700049FF2CE018225343EA185268EB56012020
:101E8000141C04405508DB01002C11D0124C1B1906
:101E90005D1930352E780C010F21314021439A18FD
:101EA000C9B22970403213781843107000240EE034
:101EB000094E0F279B195D1930352E789A18BE43AD
:101EC0003143C9B229704032137818431070201C76
:101ED000F8BDC046906A000000440041FEE770472C
:101EE00010B5FFF769FE01F03DFFFFF7F8FF012095
:101EF000FFF736FD084C201C00F0BCFF201C01F051
:101F000031F8FEF731F9FEF74BF9044B002BFAD00C
:101F100000E000BFF7E7C046A70F00200000000068
:101F2000F7B58A18061C0D1C01920C1C019B671B3F
:101F30009C4207D0336821781B68301C98470134D5
:101F40000028F3D1381CFEBD38B5051C0C1C081E3A
:101F500007D002F023F82B68021C5B68281C211CA8
:101F6000984738BD08B50249FFF7EEFF08BDC046E7
:101F7000E06E000038B5041CFFF7E6FF051C201CCE
:101F8000FFF7F0FF281838BD014B18607047C046B6
:101F900020020020024B012252421A607047C046C4
:101FA00020020020154A1368581C25D0013B1360FD
:101FB000002B21D172B6124A124B04329A4207D832
:101FC000BFF34F8F104A114BDA60BFF34F8F11E010
:101FD0000F4B197DC807FBD5188B2021FF319208C4
:101FE000520001431983DA610A4A1A801A7DD10727
:101FF000FCD5E5E7C046FDE77047C046200200205B
:1020000000000000030200000400FA0500ED00E0FB
:102010000040004102A5FFFF01607047F7B508AC22
:10202000267804689D1E27686C1EA541ECB29207B5
:1020300005683A4327063A432A6002680725294083
:102040005068B501002C00D05C03294301430C43C8
:102050005460F7BD30B50368C0251C68AD03120598
:102060002A402243C024A4020904214011431960DC
:1020700003685A6814435C6030BD036801211A6824
:102080000A431A600268116801231942FBD1D16921
:102090001942F8D17047036802211A680A431A608E
:1020A0000268D3699907FCD47047000038B502680C
:1020B000041C137EDA070CD4FFF74CFC051C2268C5
:1020C000137E9A0705D4FFF745FC024B401B98424C
:1020D000F5D938BDE7030000036800225A83704732
:1020E0000368187E4007C00F70470368187EC00958
:1020F000704703688022197E52420A431A7670475D
:102100000368588B8007C00F7047036802215A8B01
:102110000A435A8370470368187E012318407047AA
:102120000368188DC0B2704703681A7E012002420E
:10213000FBD019857047036801229A7570470368C0
:1021400001221A757047000070B5036801268D07DB
:10215000ED0F31401C686D070907294321431960C1
:1021600004685100034801F03DFD0138C0B22073FE
:1021700070BDC046006CDC02036801211A680A4386
:102180001A600268116801231942FBD1D169194212
:10219000F8D17047036802211A680A431A6002687E
:1021A000D3699907FCD470470368DA699107FCD4B6
:1021B0001A6802218A431A60704703689A6A520AB1
:1021C00052021143996203681A7E5107FCD5986A3E
:1021D000C0B27047036801211A680A431A60026896
:1021E000116801231942FBD1D1691942F8D1704716
:1021F000036802211A680A431A600368DA699107C2
:10220000FCD45A8B30218A4310210A435A83026836
:10221000D3695907FCD4704703688022196859684C
:10222000D2020A435A6070470368034A1968596822
:102230000A405A607047C046FFFFFBFF30B5036895
:1022400003241D680C40074A596824040A40ED061F
:1022500022436D0F5A60052D03D10268D3695907D7
:10226000FCD430BDFFFFFCFF49001143036830B5CB
:10227000CDB2598B032409092140012904D0598B7F
:1022800009090C40022CF4D1596AC90AC902294330
:1022900059620368002A03D11A7ED107FCD50DE0EC
:1022A000187E01224008104008D1197E1142F7D053
:1022B0005968C02292020A435A6003E05B8B0120F6
:1022C0009B08984330BD0368283319700268107E5C
:1022D0000123184003D1518B1942F8D003E0528BEF
:1022E000181C9208904370470368283319700368DC
:1022F00000201A7E510703D55B8B01209B08984371
:10230000704703681868C006400F043843425841BC
:10231000C0B270470368187E4007C00F704703685B
:10232000187E0123184070470368588BC006C00F01
:1023300070470368187E8007C00F70470368588B8A
:102340000007C00F704703681A68D206520F052AAB
:1023500002D11A7E9107FCD528331878C0B2704795
:102360000368224A30B5934211D0214A934211D0DA
:10237000204A934211D0204A934211D01F4A9342DF
:1023800011D01F4A934230D10E2319220DE00923A8
:1023900014220AE00A23152207E00B23162204E088
:1023A0000C23172201E00D231822DCB2154901206D
:1023B0009B08A0409B0008605B180320C021890097
:1023C00004405D58E000FF248440A5432C1CC02538
:1023D0008540281C204358508023DB011A430A4BB8
:1023E0005A805A7852B2002AFBDB30BD0008004206
:1023F000000C00420010004200140042001800428D
:10240000001C004200E100E0000C0040F8B5041C94
:10241000151C0E1C1F1CFFF7A3FF201CFFF72DFE31
:10242000B1001C220A4069072368090C0A431A609C
:10243000226884239375012E1AD10821012D00D121
:1024400010210C4B79431868C00001F0CBFB2368C6
:1024500007219A890140D2044903D20C0A439A8188
:1024600023680004C20C9889400B400310439881F4
:10247000F8BDC0461C020020F7B5019308AB041C50
:102480001F780D1C161CFFF777FE201CFFF768FF56
:10249000BF070C221743C022920336051640C02204
:1024A00092022D0423683E430199154035430722CB
:1024B0001D600A408021236889020A435A60F7BDE3
:1024C00070B5041C0E1CFFF74BFF201CFFF782FEAB
:1024D000236814221A600D4B71001D682468281CA3
:1024E00001F080FB0A49061C281C01F07BFB7D23C0
:1024F000FA215843C90001F075FB301AE668FF2342
:10250000053818409E430643E66070BD1C0200205B
:1025100040420F000120704708B50368014A1B6A5A
:10252000984708BD13040000031CFC33D9699A695D
:10253000914203D0DB69C018007D01E001204042D8
:10254000704710B5041C0069FFF797FD221C00239B
:10255000FC329361D36186229200A4186360A36069
:1025600010BD0000F0B587B001930CAB1B7880263E
:1025700002930DAB1B78002503930EAB1B787600FE
:1025800004930FAB1B78041C0593FA239B00836014
:10259000194B0F1C0833009245600360291C321C44
:1025A000143001F022FC231C8E22FC3352009D616A
:1025B000A018DD61321C291C01F017FC8622920054
:1025C000A3185D60009A9D6089239B002761E254F7
:1025D000019A0A4B201CE254029A094BE254039AD6
:1025E000084BE254049A8A239B00E254059A8E23F6
:1025F0009B00E25407B0F0BDF06E00002502000021
:10260000260200002702000030B585B0041C08A88F
:10261000057809A8007800950190FF2002900390AA
:10262000201CFFF79FFF201C05B030BDF023081CC5
:1026300018403038434258417047F0231B0119407D
:1026400080239B0099420CD0C0239B00994206D066
:1026500080235B000520994204D0002002E007207F
:1026600000E0062070470F231940012905D00239E8
:102670004B424B410220C01A00E00020704700008E
:10268000F0B5892385B003919B00041C1827C05C1A
:102690003B1C4343324E0821F3185956151CFFF7D3
:1026A000BBFB304B0821E05C3B1C4343F3185956FD
:1026B000FFF7B2FB2C4BE25C022A0AD18E239B006F
:1026C000E05CFF2805D047430821F7197956FFF74A
:1026D000A3FB8A27BF00E05DFF281AD00121FFF786
:1026E00011FBE35D18225A43B3562049DB01581809
:1026F0008B21890060501E49B6185B188C217268C6
:1027000089006350012191400A1C8D21890062508B
:102710001A6001210A1C039B2069FFF777FE291C20
:10272000201CFFF78AFF291C071C201CFFF79BFFBA
:10273000291C061C201CFFF779FF391C0090331C54
:1027400020690122FFF76AFC074B2069E15C094B15
:10275000E25CFFF77FFC2069FFF79DFC05B0F0BD50
:10276000906A000025020000270200001844004182
:102770001444004126020000031CFC3358689B6887
:10278000C01A01D50130FF307047000038B5041C75
:10279000FFF7E0F8051C8E235B00E018FFF7ECFF65
:1027A000002805D0FFF7D6F8034B401B9842F2D91A
:1027B0002069FFF77BFC38BDE703000008B5143043
:1027C000FFF7DAFF08BDFC30426883689A4204DBF9
:1027D00043688068C01AFF3003E082684368D01AFB
:1027E0000138704708B51D30FF30FFF7ECFF08BD1A
:1027F00038B5041C0069FFF783FC002805D0206968
:10280000FFF78EFC2069FFF780FC2069FFF768FC6A
:10281000002820D02069FFF783FC231CFC339A6931
:10282000D9690132D2B28A4203D099696118087518
:102830009A618A239B00E35CFF2B0CD0201C143090
:10284000FFF7C1FF182806DC8B238D229B00920026
:10285000E358A2581A602069FFF75DFC00281FD0DA
:102860008E225200A518281CFFF786FF031C206942
:10287000002B13D086229200A31899685A689142BF
:1028800006D09A68A95C9A680132D2B29A6001E0D7
:1028900001214942C9B2FFF747FC01E0FFF74FFCB5
:1028A0002069FFF722FC002805D02069FFF721FCF2
:1028B0002069FFF711FC38BD70B5041C00690D1CC0
:1028C000FFF729FC8E225200A61800280ED0301CDB
:1028D000FFF752FF00283DD008E0EFF31083DA073E
:1028E00022D41F4B5A68D205D20D0AD186229200FB
:1028F000A31858689A680130FF2108409042ECD034
:102900001BE0103AD2B253B2002B08DA0F231A4060
:10291000083A144B92089200D218536804E09B08BE
:10292000C033114A9B009B582069FFF7F4FB002835
:10293000DCD0201CFFF75CFFD8E75A6801320A4060
:1029400099688A4202D0596875545A602069FFF725
:10295000F2FB03E02069291CFFF7E6FB012070BDB4
:1029600000ED00E018ED00E000E100E038B5031CE8
:10297000FC33D9699A69041C914207D0DA6982183C
:10298000157DDA690132D2B2DA6101E001256D42CA
:102990008A239B00E35CFF2B0CD0201C1430FFF734
:1029A00012FF192806DD8C238D229B009200E3582C
:1029B000A2581A60281C38BD10B507230F22024008
:1029C000141C00093034092A00DD0734CC54013BC3
:1029D000F4D210BD10B5054B041C0360806901F0F2
:1029E000F1F9A06A01F0EEF9201C10BD306F000073
:1029F00010B5041CFFF7EEFF201C00F0DDFF201CCB
:102A000010BD000070B582291ED1C2B22A495301FF
:102A1000CB189D69294C80012C40C025AD052C4365
:102A20009C61274C0832201858610B685201991894
:102A30000C798020404220430871D15C7020814392
:102A400030200143D15435E0002933D1C2B21A49B4
:102A50005301CB189E68194DC0242E40A40526436F
:102A60009E60184E80010968301808325860520183
:102A7000505C0726B0430126304350549E693540D0
:102A80002C439C610E4C5C61505C7024A04310246C
:102A9000204350549C680C488A18204080246403CA
:102AA0002043986098684021800B80039860537998
:102AB0000B43537170BDC046B00F0020FFFFFF8F66
:102AC000040C0020C80D0020FF3F00F038B5041CA6
:102AD00008CC01211A78051C0A431A708022201C98
:102AE0000021520001F081F92B689A78D107FCD4BB
:102AF0005C6238BD134BF0B51B6899035A029B0109
:102B0000C90ED20E5B0F1F2900D105211F2A00D14B
:102B10001D22072B00D1032304688E01278D0A494B
:102B20001F2539403143218501682A400C8DAC4373
:102B300022430A8502681903108D044B03400B439E
:102B40001385F0BD246080003FF8FFFFFF8FFFFF7B
:102B5000EFF3108303600123436072B6704703688C
:102B6000002B02D162B6BFF36F8F704737B505698E
:102B7000041C6846002D12D1FFF7EAFF019B013BC0
:102B800003D3621DD57FEDB2F9E768460193FFF7E5
:102B9000E6FF0020854217D0206AE36913E0FFF7C3
:102BA000D7FF019B0025013B04D3221C343215784A
:102BB000EDB2F8E768460193FFF7D1FF00208542A8
:102BC00002D0206BE36AC01A3EBD0000436810B516
:102BD0001A68037A01215B01D318FF339A7A0A43FA
:102BE0009A72037A42685B01D318C2689C689104A8
:102BF0000B4A090922400A439A60037A42685B0142
:102C0000D3189A684021920B92039A6043681A681D
:102C1000037A08335B01D3181A790A431A7110BD7D
:102C2000FF3F00F0F7B50569041C0E1C171C684631
:102C3000002D1FD1FFF78CFF019B013B5A1C06D0D2
:102C4000621DD17F5A1E00293AD0131CF6E7684650
:102C50000193FFF784FF0025E369BD4235D0226A66
:102C6000934232D25A1CE261A269D3181B78735581
:102C70000135F1E7FFF76CFF019B013B5A1C08D0BF
:102C8000221C343215785A1EEDB2002D18D0131CB8
:102C9000F4E768460193FFF762FF0025E36ABD424F
:102CA00026D0226B934241D322E0621D0021D177CE
:102CB00030321678581E8E4214D1031C5A1CF4D19F
:102CC00068460193FFF74BFF38E0226A934235D103
:102CD0000023E361012323616846FFF739FF019B6D
:102CE000013BEBE71170201C0193FFF76FFFF6E744
:102CF000226B934222D10023E36223616846FFF7EF
:102D000027FF019B013B5A1CDAD0221C34320021E0
:102D1000117001321678581E8E4201D1031CF2E761
:102D20001170201C0193FFF751FFEAE75A1CE26281
:102D3000A26AD3181B7873550135AFE7281CFEBD76
:102D400037B54368027A1B68083252019A18041C8E
:102D5000D0790123FF21184255D0D371A06865694D
:102D600062680140002D1FD1490152189168890401
:102D7000890C2162216A002942D06361A36A6846F6
:102D80005360FFF7E5FE019B013B5D1C34D0621DE3
:102D90000120D0772F3211785D1EC9B21218002998
:102DA00015D111702B1CF0E74B01D3189A689204CF
:102DB000920C2263226B002A22D000226261A26957
:102DC00068465A60FFF7C4FE019B013B12E0019385
:102DD00010706846FFF7C3FE15E0221C3432012054
:102DE0001070621DD17F5D1EC9B230320029EED154
:102DF00011702B1C5D1CF0D168460193FFF7AFFEEC
:102E0000201CFFF7E3FE37BD37B500236C46E371A6
:102E10000734201C0D1C00F019FE2B6818182860C0
:102E200000F0BCFE211C00F073FE2B68181828600F
:102E300020783EBD03290BD10D4BB2221B685200F6
:102E4000985C8021494201439954022168220CE098
:102E500001290CD1064B92221B685200985C8021FC
:102E600049420143995402212822FF329954704764
:102E7000B00F002038B5304B00240121051C1A206A
:102E80001C70FEF73FFF1A200121FEF795FF2B4B28
:102E9000192001211C70FEF735FF19200121FEF7D2
:102EA0008BFF274B2021DA6901200A43DA61254B89
:102EB00006241A7802431A70234B0F221978914383
:102EC000197019782143197020490C782043087033
:102ED00019780A401A701A7860210A431A701C4B3C
:102EE0001C4A5A805A78D209FCD11B48FEF72CFDA7
:102EF0001A4C201CFFF7EAFD201CFFF7FBFD23689E
:102F00007F2219780A401A701A7804210A431A702D
:102F10001A890C218A431A81C121114A890050580B
:102F20000002000A5050802111601A7802210A43E1
:102F30001A7001232B7038BDC40D0020AC0F002087
:102F400000040040584400413C44004159440041C1
:102F5000000C00400640000091390000B00F002036
:102F600000E100E00078002810D0094B01211B6827
:102F70001A898A431A811A8B08210A431A831A8BE9
:102F800004210A431A83034B00221A607047C0468B
:102F9000B00F0020B41000200F4B9A69920B9203DF
:102FA0009A611B680222FF331A729879802252427A
:102FB00002439A711A7A9007FCD5084B081C997A3B
:102FC0007F221040914301439972997A80225242A4
:102FD0000A439A727047C046B00F0020005000416B
:102FE00010B50B790C1C002B0BD1081C00F03CFD1C
:102FF000002804D1094B9A69920B92039A6101202F
:103000000BE000F0CBFD211C00F0B6FD0028F6D14E
:10301000024B9A69920B92039A6110BDB00F002087
:10302000F7B50D1C832A18D1CAB236495301CB1803
:103030009C693548AD012040C024A4052043986117
:103040003248083245195D610B685201D15C70202D
:10305000814340200143D15453E0022A4DD12C4BEF
:103060008900C8580191002802D003681B6998475D
:10307000382000F09DFC274B224F8026036076000D
:103080000023421D036203614361C36147608560A1
:10309000C660D3772F32041CC36203631370301CE5
:1030A000537000F085FEA061301C00F081FEFF230C
:1030B0001D406D01A0627F19B968134A07250A40B7
:1030C000C02189050A43BA60A16862681940126884
:1030D00008314901885CA843032528438854A26825
:1030E000616813405B01A269CB185A60201CFFF78E
:1030F0006DFD074B01995C5003E0081C111CFFF7A4
:1031000081FCF7BDB00F0020FFFFFF8F040C0020F3
:10311000880F0020306F000038B5051C0124064BD5
:10312000A200D258002A06D0211C281C0134FFF727
:1031300077FFE4B2F3E738BD2402002008B5084B5E
:103140008A00D058002803D003689B68984706E09F
:10315000C9B2044B4901591888688004800C08BD25
:10316000880F0020B00F002010B50C1CFFF7E6FF01
:1031700000280CD0064BE1B21B68083149015918F0
:103180004A7980235B4213434B710223CB7110BDFC
:10319000B00F002070B5CAB2134B14485401890116
:1031A0005918031959609D68114908322940802532
:1031B000AD022943996099684026890B890399607B
:1031C0000368510159180D7935430D715101591892
:1031D00089794D06FAD551015918C979CD07FAD523
:1031E0000419A068C0B270BDC80D0020B00F002047
:1031F000FF3F00F038B50C4B141C1B680D1CFF334F
:103200005A7940210A435A710021FFF7C3FFA042B7
:1032100000D9201C0023A34204D0044A9A5CEA543B
:103220000133F8E738BDC046B00F0020C80D0020BC
:1032300010B5C9B20C48490143189A689204920C1F
:103240003F2A08D9141C9A68403CA404920BA40C91
:103250009203224302E09A68920B92039A6041180B
:103260008868C0B210BDC046B00F0020F0B51C1C6D
:103270002F4B85B01B68061C0D1C0292002B51D0F1
:103280002C4F3978C9B2002902D11920FEF794FDDC
:1032900064233B70284BAA00D058002805D003684F
:1032A00002995B68221C984740E0301C291CFFF7FC
:1032B00045FFA04204D2301C291CFFF73FFF041C2D
:1032C000291C301CFFF7B4FF1C4FE9B24A010191E1
:1032D000396803928B18FF335A7A01210A4318493F
:1032E0005A72AB01C9180298221C00F075FD002C1F
:1032F0001BD0301C291CFFF721FF002815D1019B92
:103300003A6808335B01D3181979402001431971D9
:103310000121D97103995318FF339A7A01210A4385
:103320009A7202E00120404200E0201C05B0F0BD8E
:10333000B4100020AC0F0020880F0020B00F002038
:10334000C80D002013B56C460734221C0123FFF77B
:103350008DFF012801D1207801E00120404216BDF7
:10336000F0B51C1C3F4B85B01B680E1C0292002B55
:103370006AD08023DB019C4266D83B4D2978C9B2D4
:10338000002902D11A20FEF717FD642300222B70BA
:103390000092002C56D0354DF7B22B6801933B1CA0
:1033A0000833019A5B01D3189B79DB091AD0304BA3
:1033B0003049186800F016FC2F4B1721584300F0D5
:1033C00011FC3B1C0833019A5B01D318DB799A0787
:1033D00008D42A4B9A5D002A38D1421E002835D0E5
:1033E000101CEEE7254B00229A55251E3F2D00D9D3
:1033F0003F25234AB301D318181C02992A1C0393B2
:1034000000F0EAFC194A7B01D318039AA9045A6117
:103410009A69890C920B92030A439A613B1C019AA8
:1034200008335B01D3180222DA71597980225242A3
:103430000A435A71009B029A5B1952190093641B4C
:103440000292A6E700980BE0012008E001229A55BD
:103450007B01ED18AB69101C9B0B9B03AB614042D9
:1034600005B0F0BDB4100020C40D0020B00F002046
:103470001C02002040420F0070110100FC0B0020D4
:10348000040C002070B50E4D1C1C8B01ED18281C7F
:103490000E1C111C221C00F09FFCF6B2094976019B
:1034A00089194D618A69084B201C13408B618B6917
:1034B000A2049B0B920C9B0313438B6170BDC0460F
:1034C000040C0020B00F0020FF3F00F0F7B5114BB7
:1034D00001901B780F1C141C002B19D10E4B1E7869
:1034E000002E01D1151C08E00C4D0D482E888019C6
:1034F000361900F071FC2E800AE0002D08D0BA19B0
:103500002B1C01980021FFF7BDFF36182D1AF4E798
:10351000201CFEBDA60F0020A40F0020FA0B0020E7
:10352000F90A0020F8B50E1C00AF151E012D28D990
:10353000D31DDB08DB006A46D21A9546081C00F052
:103540002DFD01306C464000032320706370022281
:10355000AA420ED23378002B0BD0511CC9B20136CF
:10356000A354A94204D0002302326354D2B2EFE73D
:103570002A1C0548211CFFF7A9FF431E9841C0B231
:1035800000E00020BD46F8BDA70F002008B5044BA1
:1035900000221A70034B04491A88FFF797FF08BDF1
:1035A000A40F0020FA0B0020F90A0020F0B5204AF1
:1035B00087B001230026009102A91370051C029612
:1035C000FFF722FC03AC092701903A1C201C311C98
:1035D00000F00BFC02236370A023E371FA23237233
:1035E000029B0122DB196380019B62712371104AE7
:1035F000009B27701670BB4205D1281C211C1A1C89
:10360000FFF764FF11E00B4B01221A700A4B211CDB
:103610003A1C281C1E800296FFF758FF281C02A99E
:10362000FFF7F2FB281CFFF7B1FF012007B0F0BD48
:10363000A60F0020A40F0020FA0B002070B5CE7852
:1036400092B0051C0C1C022E08D1C9882D48FFF72A
:10365000ADFF031C581E8341D8B251E000F09EFA22
:10366000211C00F06AFA002803D0C3171B1AD80FD8
:1036700046E0012E04D1E2882349112A3BD837E0E5
:10368000032E3DD1A278002A05D12049E2880B788B
:1036900093422DD82FE0022A03D1A279281C1C497D
:1036A00004E0012A05D1A2791A49281CFFF73AFF44
:1036B00026E0032A24D1184B01A91868FFF77CF9EA
:1036C000164B03A91868FFF777F9154B05A9186879
:1036D000FFF772F9134B07A91868FFF76DF900F0AF
:1036E0005DFA09A900F039FAA279281C01A9DDE7E1
:1036F000D2B2002A00D10A78281CFFF7E7FE012089
:1037000012B070BDA70F0020586F0000546F00006A
:103710006A6F0000486F00000CA0800040A080008D
:1037200044A0800048A0800073B5051C48780C1C9C
:103730000B2878D800F04CFA081C7728773E43060F
:10374000474B686F00206FE0097801AA002903D178
:1037500011705170281C09E0002313705370334B13
:103760001B78012B00D11370281C002102234FE08D
:103770008A780023012A04D101AA137053702C4BBC
:10378000EEE72A4A137049E08E78012E07D1284BC4
:1037900001AA00211E701170281C331C38E0002E75
:1037A00008D1224A01231370224A9169890B8903A7
:1037B000916138E0A178281CFFF7EEFB33E0281C6C
:1037C000FFF73CFF30E0281C00211B4A1FE00A786D
:1037D0000020D30628D1281CFFF79EFCA2781549AB
:1037E000154B02241A600A682A23FF33D05C204359
:1037F000D0544A20FF30145C01231C4314548A69BE
:10380000920B92038A610EE00C4A281C00210123CE
:10381000FFF738FE07E08A78084B1A60054B9A6973
:10382000920B92039A61012076BDC046F80A0020EF
:10383000A50F0020B00F0020B4100020A80F00201A
:10384000F8B54B4B071C1C78002C00D08FE0494D7D
:103850002868838B19070ED5201C211CFFF7D2F88E
:103860002B6810201A1CFF32917A01439172424A50
:10387000146008229A832B689A8B50071FD5042264
:103880009A833E4B1A78002A0AD01A78013AD2B2AB
:103890001A701B78002B03D11A200121FEF78CFA35
:1038A000374B1A78002A0AD01A78013AD2B21A7025
:1038B0001B78002B03D119200121FEF77DFA2B681C
:1038C000FF331A7AD10626D510221A725A7940216E
:1038D0000A432C495A710A786023381C1A4202D1D3
:1038E000FFF722FF01E0FFF77BFB002806D02B68E3
:1038F0008022FF33997952420A4301E0224B202271
:103900009A712B68FF331A7A500604D540221A7236
:10391000597A0A435A722968FE230E8C00241E40ED
:10392000E1B2002E23D0321C012322411A4216D0CC
:10393000221C2868083252018218D079184203D11B
:10394000D279DA401A4207D0104BA200D058002892
:1039500009D003681B6898470123A3409E430134A4
:10396000092CDDD103E0381CFFF764FAF4E7F8BD59
:10397000A40F0020B00F0020B4100020C40D0020C0
:10398000AC0F0020C80D0020FF500041880F002020
:1039900008B50248FFF754FF08BDC046A70F002036
:1039A000014A024B1A60704700500041B00F0020DE
:1039B00008B500F0FDF908BD08B500F003FA08BD30
:1039C0003F20704713B502686B46D97107335468BE
:1039D000191C0122A04716BD08B500690221FFF796
:1039E000ADFB08BD08B500690321FFF7BDFB08BDAD
:1039F00038B50D1C041C131C006903212A1CFFF799
:103A0000AFFC002801D10123636038BD10B5054C1F
:103A100023685A1C04D103685B6998472060031C23
:103A2000181C10BD9C020020074A08B51368591CD9
:103A300004D0012149421160181C03E000690221F1
:103A4000FFF780FC08BDC0469C02002008B5037843
:103A500003490233037042220248FFF737FD08BDD5
:103A600058020020A70F002010B50178031C4278EF
:103A70000020A12908D1212A2FD11848184907224E
:103A8000FFF724FD012028E0212926D1202A05D195
:103A9000134907221148FFF7ADFB04E0222A10D199
:103AA0009A780F4BDA710E4B96221968D200914228
:103AB00010D1DC7901231C400CD1FA20FEF764FA06
:103AC0000AE0232A09D1DA789B7812021A43054BBF
:103AD0001A6002E0FEF75EFA002010BDA70F00207A
:103AE0004C02002054020020064BFA218900996004
:103AF000054900220831196004495A6019611A7693
:103B00007047C046B8100020786F0000A70F002053
:103B100070B544680E1C0025002C09D02368201CB9
:103B20005B68311C9847002804DB2D18E468F3E734
:103B3000281C01E00120404270BD38B544680D1CCE
:103B4000002C08D02368201C9B68291C984700285B
:103B500002D1E468F4E7201C38BD38B544680D1C78
:103B6000002C07D02368201C291CDB689847E468D8
:103B70002D18F5E72C7038BD38B544680D1C002CA5
:103B800008D02368201C1B68291C9847002803D1F3
:103B9000E468F4E7201C00E0012038BD064B012258
:103BA000196810B51140054805D102240470042499
:103BB000447041601A6010BDDC100020D410002059
:103BC00008B5031C081C191C00F0BCF808BD000057
:103BD00002B4714649084900095C49008E4402BCA0
:103BE0007047C046002934D00123002210B4884217
:103BF0002CD301242407A14204D2814202D209011C
:103C00001B01F8E7E400A14204D2814202D249003C
:103C10005B00F8E7884201D3401A1A434C08A042DF
:103C200002D3001B5C0822438C08A04202D3001B75
:103C30009C082243CC08A04202D3001BDC0822438C
:103C4000002803D01B0901D00909E3E7101C10BCB0
:103C50007047002801D00020C04307B4024802A1E9
:103C60004018029003BDC046D90000000029F0D0E2
:103C700003B5FFF7B9FF0EBC4243891A1847C04687
:103C8000002941D010B4041C4C40A446012300225A
:103C9000002900D54942002800D5404288422CD353
:103CA00001242407A14204D2814202D209011B014E
:103CB000F8E7E400A14204D2814202D249005B004D
:103CC000F8E7884201D3401A1A434C08A04202D3B5
:103CD000001B5C0822438C08A04202D3001B9C08F6
:103CE0002243CC08A04202D3001BDC082243002858
:103CF00003D01B0901D00909E3E7101C6446002C1E
:103D000000D5404210BC7047002806D003DB0020DD
:103D1000C043400801E08020000607B4024802A129
:103D20004018029003BDC046190000000029EBD0E6
:103D300003B5FFF7A7FF0EBC4243891A1847C046D8
:103D40007047C04638B5051C05480C1C131C0028DC
:103D500004D00220291C221C00E000BF38BDC04650
:103D60000000000070B50E4B0E4D0024ED1AAD1092
:103D70001E1CAC4204D0A300F35898470134F8E766
:103D800000F05CFC084B094D0024ED1AAD101E1C20
:103D9000AC4204D0A300F35898470134F8E770BD53
:103DA000040300200403002004030020200300205B
:103DB00008B5034B011C186800F068F808BDC04640
:103DC0000003002008B5034B011C186800F016F82A
:103DD00008BDC0460003002010B50023934203D065
:103DE000CC5CC4540133F9E710BD031C8218934224
:103DF00002D019700133FAE77047000030B500298E
:103E000040D004390B68002B00DAC9181E4A136829
:103E1000141C002B02D14B60116033E099420FD289
:103E200008680A189A4205D113685268C0180860D9
:103E30004A6000E04B60216024E08A4203D8131CF2
:103E40005A68002AF9D11D685C198C420BD10968A7
:103E5000691858181960904214D1146852680919E9
:103E600019605A600EE08C4202D90C23036009E00D
:103E700008680C18944203D114685268001908604D
:103E80004A60596030BDC046E410002070B503237D
:103E9000CD1C9D430835061C0C2D01D20C2501E0DC
:103EA000002D3FDB8D423DD3204B1C681A1C211C8A
:103EB000002913D00868431B0DD40B2B02D90B60CB
:103EC000CC181EE08C4202D1636813601AE0486887
:103ED00060600C1C16E00C1C4968E9E7144C206873
:103EE000002803D1301C00F025F82060301C291C6C
:103EF00000F020F8431C15D0C41C03239C438442CB
:103F00000AD12560201C0B300722231D9043C31AC1
:103F10000BD05A42E25008E0211A301C00F00AF897
:103F20000130EED10C233360002070BDE41000207E
:103F3000E010002038B5074C0023051C081C236046
:103F400000F062FB431C03D12368002B00D02B60E0
:103F500038BDC046EC1000200EB400B59CB01DABBF
:103F600004CB822202A992008A810A4A02908A60C6
:103F70004A6101225242CA81074A086110681D9AAB
:103F8000019300F073F8029A002313701CB008BC70
:103F900003B01847FFFFFF7F000300200023C25C2F
:103FA0000133002AFBD1581E70470000F0B58D6820
:103FB00085B0071C0C1C03920193AB4245D39022A1
:103FC0008B89D20013423DD06269032656430969AA
:103FD0002068F20F401A96190290021C01980132D3
:103FE00012187610964200D2161C381C5A050FD5AE
:103FF000311CFFF74BFF051E13D0029A2169FFF712
:10400000EBFEA289184B134080221343A38111E0D9
:10401000321C00F0C9FA051E0CD1381C2169FFF7CB
:10402000EDFE0C233B60A389402213430120A381B2
:10403000404217E0029B2561ED1825606661019DF5
:10404000F61AA6600198A84200D2019D2A1C206899
:10405000039900F090FAA2680020531BA360236824
:104060005D19256005B0F0BD7FFBFFFFF0B59FB087
:10407000039005938B890E1C171C19060FD5326906
:10408000002A0CD14021FFF701FF30603061002889
:1040900003D103990C230B60C9E04023736106AD83
:1040A00000236B6120236B763023AB763C1C237896
:1040B000002B03D1E21B029211D003E0252BF9D093
:1040C0000134F4E70398311C3A1C029BFFF76EFFA2
:1040D000013000D1A6E06969029A8B186B612378E0
:1040E000002B00D19EE0012252426A606A46002302
:1040F0005B3201342B60EB60AB601370AB654E4FED
:104100002178381C052200F02BFA002807D0C71BA5
:104110002B680120B840184328600134EFE72B6872
:10412000D90603D56A4620215B3211701A0703D5E0
:104130006A462B215B32117022782A2A01D0099B12
:104140000EE0059A111D12680591002A01DB099203
:1041500004E05242EA60022213432B60013409E07A
:104160002278303A092A04D80A214B4301349B189B
:10417000F6E7099323782E2B18D163782A2B09D1DF
:10418000059B02341A1D1B680592002B0DDA0123D2
:104190005B420AE0013400232278303A092A04D82D
:1041A0000A214B4301349B18F6E70793234F2178EC
:1041B000381C032200F0D4F9002806D0C71B2B6856
:1041C0004020B84018432860013421781C4806225A
:1041D000671C297600F0C4F9002812D0194B002B77
:1041E00006D1059B0722073393430833059314E058
:1041F00005AB00930398291C321C134B00E000BF51
:1042000007E005AB00930398291C321C0E4B00F00D
:1042100091F804900499013104D06A690499531803
:104220006B6143E7B3895A0601D40B9801E0012082
:1042300040421FB0F0BDC046A26F0000A86F000052
:10424000AC6F000000000000AD3F0000F7B5151C8A
:1042500001930A698B68061C0C1C934200DA131C3C
:10426000221C2B6043321278002A01D001332B60CC
:104270002068800602D52B6802332B602168062750
:104280000F401FD0231C43331B785A1E93412268D2
:1042900092061FD5E11840313020C870211C5A1CED
:1042A00045310978A21840320233D17012E0221C45
:1042B000301C019919320123089FB847013011D0F1
:1042C000009F01370097E0682968009F431A9F42CA
:1042D000EDDBD7E7221C301C01994332089FB84719
:1042E000013002D10120404223E0206806212B68E2
:1042F000E26801400025042903D1D51AEB43DB17FE
:104300001D40A26823699A4201DDD31AED180027E7
:104310000097009FAF420BDA221C301C01991A3221
:104320000123089FB8470130DCD0009F0137EFE739
:104330000020FEBDF0B50D1C8BB0433506920590F4
:10434000079304950B7E0C1C109A6E2B00D1A7E0EE
:1043500011D8632B22D009D8002B00D1B0E0582B04
:1043600000D0C0E045310B707B4D4EE0642B1CD07B
:10437000692B1AD0B7E0732B00D1A5E009D86F2BB9
:1043800029D0702B00D0AEE00E68202333430B60A1
:1043900036E0752B1FD0782B32D0A4E013680D1CAB
:1043A000191D423511601B689FE0216813680E06D5
:1043B00003D5191D11601E6805E04806F9D5191DC1
:1043C000116000215E5E644B002E3BDA049D2D22BD
:1043D00076422A7036E0216813680E0603D5191D4F
:1043E00011601E6804E04806F9D5191D1E88116089
:1043F000594B227E039308276F2A1ED00A271CE000
:10440000231C78214533554D197011682368081D08
:10441000039510601E0601D50E6802E05806FBD514
:104420000E88D90702D52022134323601027002EBF
:1044300003D1226820239A432260231C00224333A5
:104440001A7001E003930A276368A360002B03DB63
:104450002568042295432560002E02D1049D002B7F
:104460000ED0049D301C391CFFF700FC0398013D61
:10447000435C301C2B70391CFFF7B4FB061EF1D1D6
:10448000082F09D12168C90706D5626823699A42B5
:1044900002DC013D30232B70049E731B23612AE054
:1044A000086813684969050604D5181D10601B6863
:1044B000196005E04606F8D5181D10601B681980C4
:1044C00000232361049D16E01368191D11601D6807
:1044D000281CFFF763FD63682061984200D92361BF
:1044E0002069606004E0251C42352B7001232361A4
:1044F000049E00233370079E05980096211C09AA8C
:10450000069BFFF7A3FE013002D10120404221E0CB
:104510002A1C059806992369079DA8470130F4D005
:104520002668B60705D4099BE068984212DA181C81
:1045300010E00025E0680999431A9D42F3DA221C35
:104540000598069919320123079EB0470130DCD047
:104550000135EFE70BB0F0BDB36F0000C46F000092
:10456000C9B28218904204D003788B4202D0013045
:10457000F8E70020704770B5814201D300230CE0BA
:104580008C18A042FAD28518131C013B0BD3514260
:104590006618F65C6918CE54F7E7934203D0CC5CFA
:1045A000C4540133F9E770BDF8B5061C0C1C151C8A
:1045B000002904D1111CFFF769FC041C18E0002A33
:1045C00003D1FFF71BFC2C1C12E000F013F8A842EB
:1045D0000ED2301C291CFFF759FC071E07D0211CE6
:1045E0002A1CFFF7F9FB301C211CFFF707FC3C1CC1
:1045F000201CF8BD04390B68181F002B02DAC858BC
:104600001B18181F70470000094A1368002B0CD0B4
:1046100018186946884202D81060181C7047054B6C
:104620000C2201201A604042F8E7034B1360EFE7C9
:10463000E8100020EC100020F0100020F8B5C04673
:10464000F8BC08BC9E467047F8B5C046F8BC08BC2C
:104650009E467047000001010D0000000100061C8D
:104660000A02E40016000D071002E40022001E1CDE
:104670002001E4008B001D242001E0000E01221C1B
:104680002702E4008501221C2602E400FC01060743
:104690000A02E4000202091C0C02E4002202091CC6
:1046A0000C02E400420213111401E4006B02110F2A
:1046B0001201ED008B02060A0A02FB0093021105AB
:1046C0001502F2009E0206050902FB00A202151C5B
:1046D0001500E400EC021D1C2100E40052030F1C35
:1046E000210EE40087031D1C2100E400ED031D1CC6
:1046F0002100E40053041C1C2100E400B5041D1C2F
:104700002100E4001B051D1C2100E4008105181C8C
:104710002105E400D5051D1C2100E4003B061D1CFD
:104720002100E400A10606170902E900B306061CF1
:104730000902E900C80612171300E900FC06160C6E
:104740001A02EF001D0712171402E90051071A1C84
:104750001B01E400AC071D1C2102E40012081D1C13
:104760002202E40078081D1C2102E400DE081D1C62
:104770002102E40044091D1C2202E400AA091B1CBA
:104780001F02E400090A1B1C1D02E400680A1D1C2C
:104790002102E400CE0A1E1C2202E400370B061C94
:1047A0000A02E4004C0B1D1C1F00E400B20B1C1C91
:1047B0002002E400140C1D1C1F02E4007A0C211CD2
:1047C0002502E400EE0C1D1C2102E400540D1D1C0A
:1047D0002102E400BA0D1D1C2002E400200E211C61
:1047E0002302E400940E1D1C2102E400FA0E1D1C9D
:1047F0002102E400600F1D1C1F01E400C60F1D1CF8
:104800002102E4002C10261C2801E400B1102C1C0D
:104810002F01E4004B111D1C2102E400B111201CEA
:104820002001E40021121D1C2102E4008712091C52
:104830000C02E400A712151C1500E400F112081C7C
:104840000C02E4000D130101010000000E131D0510
:1048500021020000211308070901DA0028131817A4
:104860001C02E9006D13181E1B02E200C713181783
:104870001C02E9000C14181E1B01E2006614181734
:104880001C02E900AB140F1E1202E200E41418200F
:104890001C02E9004415181E1B02E2009E15061EAC
:1048A0000A02E200B51510270AF9E2000316181EE5
:1048B0001A02E2005D160B1E0E02E2008716231795
:1048C0002702E900EC1618171C02E9003117181727
:1048D0001C02E900761718201B02E900D6171820E1
:1048E0001B01E900361813171602E9006D18181796
:1048F0001C02E900B2180F1E1202E200EB18181792
:104900001C02E90030191E172001E9008719281739
:104910002A01E900FA1918171C02E9003F1A1820A9
:104920001C02E9009F1A18171C02E900E41A0A1C6D
:104930000C01E400071B06240902E000221B0A1CEC
:104940000C02E400253032640000FBEFBEFBEFBE3A
:10495000FBEFBEFBEFBEFBEFBE00003EFBEFBEF980
:10496000F7CFBE7DF3EF9F7CFBE7C0003F03F00075
:10497000F80F8003E03E001F01F0007C07C001F04B
:104980001F07FFFFFF9FFFFFFE7FFFFFF9FFFFFFF6
:10499000E7FFFFFF807C07C003F03E000F80F800B8
:1049A0003E03E001F81F8007C07C03FFFFFF8FFF7D
:1049B000FFFE3FFFFFF8FFFFFFE3FFFFFF81F01F58
:1049C0000007C07C001F01F000F80F8003E03E00EC
:1049D0000F80F800000F8000007C000003E0000062
:1049E0001F0001FFFFF81FFFFFF1FFFFFF8FFFFF19
:1049F000FEFFFFFFF7C07C0FBE03E07DF01F000F3E
:104A000080F8007C07C003E03E001FFFFFC0FFFFEF
:104A1000FFC3FFFFFF1FFFFFFC3FFFFFE03FF81F4B
:104A20000007C0F8003E07C001F03E000F81F7C04C
:104A30007C0FBE03E07DFFFFFFE7FFFFFF3FFFFFAF
:104A4000F0FFFFFF03FFFFF0000F8000007C00007D
:104A500003E000001F00000FC000060FFC000387EA
:104A6000FF8003E3FFF001F8FFFC00FE3C0F007F36
:104A70008F03C03FC3C0F01FC0F03C1FE03C1F0FBE
:104A8000F00FFFC7F801FFE3FC003FF1FE0007F95C
:104A9000FE000000FF0F80007F9FF8003FCFFF0067
:104AA0001FE3FFE00FE1FFF80FF0781E07F81E0785
:104AB00083FC0781E1FE01E0787F007C1E1F001F60
:104AC000FF878003FFC1C0007FF060000FF00FFF81
:104AD000FF0007FFFFE003FFFFFC00FFFFFF803F39
:104AE000FFFFE00F8000F803E0003E00F8000F80B9
:104AF0003E0000000F80000003E0000000FE000008
:104B0000007FE000003FFE00000FFFE01F03E7FE14
:104B100007C0F87FE1F03E07FE7C0F807FFF03E0D7
:104B200007FFC0F8007FF03E0007FF0F80007FE323
:104B3000FFFFFFFEFFFFFFFF9FFFFFFBE3FFFFFC09
:104B4000787FFFFE06FBEFBEFBEF801F1F9FDFEFAE
:104B5000F7C3E1F0F87C3E1F0F87C3E1F0F87C3E1D
:104B60001F0F87C3E1FEFF3F8FC3E0F87E3F9FCF5B
:104B7000F0F87C3E1F0F87C3E1F0F87C3E1F0F87E3
:104B8000C3E1F0F87DFEFE7F3F1F0003E0007C00E4
:104B90000F8021F087BE70FFFF1FFFE7FFFE7FFF42
:104BA00081FF803FF00FFE01FFE07EFE07CF8070A7
:104BB000E004100007C003E001F000F8007C07FFEC
:104BC000FBFFFDFFFEFFFF7FFF81F000F8007C0090
:104BD0003E001F00FBEFBEFBEFBCF300FFFF7FFFBB
:104BE000BFFFDFFFEFFFF0FBEFBEF800003000017A
:104BF00080001C0001E0001F0001F8001F8000FC85
:104C0000000FC000FC000FC000FC000FC0007E00C1
:104C100007E0007E0007E0007E0007E0003F0003A1
:104C2000F0003F0003F0001F0000F800078000388C
:104C300000018000001FFFFF81FFFFFE1FFFFFF844
:104C4000FFFFFFEFFFFFFF7C0007FBE0007FDF00BF
:104C500007FEF8007FF7C00FFFBE00FF7DF00FF3E7
:104C6000EF80FF1F7C0FF0FBE1FE07DF1FE03EF946
:104C7000FE01F7DFE00FBFFE007DFFE003EFFC0069
:104C80001F7FC000FBFC0007DFFFFFFE7FFFFFF37D
:104C9000FFFFFF0FFFFFF03FFFFF0000FC03F80FD7
:104CA000F03FE07FC1FF87FF1FFE7F7DFCF801F032
:104CB00003E007C00F801F003E007C00F801F003F6
:104CC000E007C00F801F003E007C00F801F003E009
:104CD0001FFFFF81FFFFFE1FFFFFF8FFFFFFEFFF3A
:104CE000FFFF7C0000FBE00007C000003E00000169
:104CF000F000000F8000007C000003E1FFFFFF1FB9
:104D0000FFFFF9FFFFFF9FFFFFF8FFFFFF87C000D6
:104D1000003E000001F000000F8000007C00000356
:104D2000E000001FFFFFFEFFFFFFF7FFFFFFBFFFD9
:104D3000FFFDFFFFFFE01FFFFF01FFFFFC1FFFFF65
:104D4000F1FFFFFF8FFFFFFE7C0001F3E0000F800B
:104D500000007C000003E000001F000000F80FFFCF
:104D6000FFC07FFFFE03FFFFF01FFFFF80FFFFFE7E
:104D7000000001F000000F8000007C000003E00054
:104D8000001F7C0000FBE00007DFFFFFFEFFFFFFCE
:104D9000F3FFFFFF0FFFFFF03FFFFF0000003E00AB
:104DA000000FE00001FE00003FE00007FE0000FFF2
:104DB000E0001FFE0003FFE0007FBE000FF3E003F2
:104DC000FE3E007FC3E00FF03E01FE03E03FC03E29
:104DD00007F803E0FFFFFFEFFFFFFEFFFFFFEFFF1E
:104DE000FFFEFFFFFFE00003E000003E000003E0E5
:104DF00000003E000003E000003E000003E0FFFF73
:104E0000FFF7FFFFFFBFFFFFFDFFFFFFEFFFFFFF0C
:104E10007C000003E000001F000000F8000007C055
:104E200000003E000001FFFFFF0FFFFFFC7FFFFFC0
:104E3000F3FFFFFFDFFFFFFE000001F000000F8027
:104E400000007C000003E000001F7C0000FBE0008D
:104E500007DFFFFFFE7FFFFFF3FFFFFF0FFFFFF006
:104E60003FFFFF001FFFFF01FFFFF81FFFFFC0FF15
:104E7000FFFE0FFFFFF07C000003E000001F0000BA
:104E800000F8000007C000003E000001FFFFFF0F18
:104E9000FFFFFC7FFFFFF3FFFFFFDFFFFFFEF800D8
:104EA00001F7C0000FBE00007DF00003EF80001F7F
:104EB0007C0000FBE00007DFFFFFFE7FFFFFF3FF4A
:104EC000FFFF0FFFFFF03FFFFF00FFFFF0FFFFFCC2
:104ED000FFFFFEFFFFFEFFFFFE00003E00003E0062
:104EE000003E00003E00003E00003E00003E00008C
:104EF0003E00003E00003E00003E00003E00003E3E
:104F000000003E00003E00003E00003E00003E006B
:104F1000003E00003E00003E00003E00003E1FFF3D
:104F2000FF81FFFFFE1FFFFFF8FFFFFFEFFFFFFF07
:104F30007C0000FBE00007DF00003EF80001F7C046
:104F4000000FBE00007DFFFFFFEFFFFFFF3FFFFFF1
:104F5000F1FFFFFFDFFFFFFEF80001F7C0000FBE0B
:104F600000007DF00003EF80001F7C0000FBE000EC
:104F700007DFFFFFFE7FFFFFF3FFFFFF0FFFFFF0E5
:104F80003FFFFF001FFFFF81FFFFFE1FFFFFF9FF35
:104F9000FFFFEFFFFFFF7C0000FBE00007DF0000EA
:104FA0003EF80001F7C0000FBE00007DF00003EFE7
:104FB000FFFFFF7FFFFFF9FFFFFFC7FFFFFE0FFFB0
:104FC000FFF000000F8000007C000003E000001FE5
:104FD000000000F8000007DFFFFFFEFFFFFFF3FF08
:104FE000FFFF0FFFFFF03FFFFF00FBEFBEF80000E9
:104FF000000000000000000FBEFBEF80FBEFBEF8DA
:105000000000000000000000000FBEFBEFBEFBCF61
:105010003000018001E000F800FE00FF807FE07FAB
:10502000E07FE07FF03FF00FF003F000FF003FF083
:1050300007FF007FE007FE007FE00FF800FE000F93
:105040008000E00018FFFFFBFFFFEFFFFFBFFFFE48
:10505000FFFFF800000000003FFFFEFFFFFBFFFF27
:10506000EFFFFFBFFFFEC00038000F8003F800FF16
:10507000003FF003FF007FF007FE007FE007F8002D
:10508000FE007F807FE07FF03FF03FF03FF00FF8C1
:1050900003F800F80038000C0000FFFFFC3FFFFFA2
:1050A0008FFFFFF3FFFFFCFFFFFF000007E00001A1
:1050B000F800007E00001F800007E00001F80000FB
:1050C0007E007FFF80FFFFC07FFFF01FFFF80FFF14
:1050D000FC03FFF800F800003E00000000000000A4
:1050E00000000000003E00000F800003E00000F818
:1050F00000003E00001FFFFF81FFFFFE1FFFFFF8C3
:10510000FFFFFFEFFFFFFF7C0000FBE00007DF0178
:10511000E03EF83FE1F7C3FF8FBE3FFC7DF1E0F3D7
:10512000EF9E079F7CF03CFBE781E7DF1C0F3EF81A
:10513000FFFFF7C7FFFFBE1FFFFDF07FFFEF8000FF
:10514000007C000003E000001FFFFFFE7FFFFFF375
:10515000FFFFFF8FFFFFFC3FFFFFE01FFFFF81FF0F
:10516000FFFF1FFFFFFCFFFFFFEFFFFFFF7C0000C3
:10517000FBE00007DF00003EF80001F7C0000FBEB3
:1051800000007DF00003EF80001F7FFFFFFBFFFFAB
:10519000FFDFFFFFFEFFFFFFF7FFFFFFBFFFFFFD8A
:1051A000F00003EF80001F7C0000FBE00007DF0041
:1051B000003EF80001F7C0000FBE00007DF00003C4
:1051C000E0FFFFFF07FFFFFE3FFFFFF1FFFFFFCF05
:1051D000FFFFFE7C0001F3E0000F9F00007CF80061
:1051E00003E7C0001F3E0000F9FFFFFFCFFFFFFEF7
:1051F0007FFFFFF3FFFFFFDFFFFFFEFC0001F7C0B3
:10520000000FBE00007DF00003EF80001F7C000057
:10521000FBE00007DFFFFFFEFFFFFFF7FFFFFFBF21
:10522000FFFFF9FFFFFF001FFFFFF1FFFFFF9FFFE1
:10523000FFFDFFFFFFEFFFFFFF7C000003E000002A
:105240001F000000F8000007C000003E000001F051
:1052500000000F8000007C000003E000001F000041
:1052600000F8000007C000003E000001F000000F41
:105270008000007C000003E000001FFFFFFE7FFFB6
:10528000FFF3FFFFFF8FFFFFFC3FFFFFE0FFFFFF8C
:1052900087FFFFFF3FFFFFFDFFFFFFEFFFFFFF7CEB
:1052A0000000FBE00007DF00003EF80001F7C0004F
:1052B0000FBE00007DF00003EF80001F7C0000FBAC
:1052C000E00007DF00003EF80001F7C0000FBE005D
:1052D000007DF00003EF80001F7C0000FBE0000772
:1052E000DFFFFFFEFFFFFFF7FFFFFFBFFFFFF9FF3D
:1052F000FFFF00FFFFFFDFFFFFFBFFFFFF7FFFFF61
:10530000EFFFFFFDF000003E000007C00000F800C6
:10531000001F000003E000007FFFFE0FFFFFC1FF42
:10532000FFF83FFFFF07FFFFE0FFFFFC1F00000348
:10533000E000007C00000F800001F000003E000053
:1053400007FFFFFEFFFFFFDFFFFFFBFFFFFF7FFF0A
:10535000FFE0FFFFFFDFFFFFFBFFFFFF7FFFFFEF30
:10536000FFFFFDF000003E000007C00000F8000055
:105370001F000003E000007FFFFE0FFFFFC1FFFFE3
:10538000F83FFFFF07FFFFE0FFFFFC1F000003E007
:1053900000007C00000F800001F000003E000007CC
:1053A000C00000F800001F000003E000007C0000C7
:1053B000001FFFFF81FFFFFF1FFFFFF9FFFFFFEF50
:1053C000FFFFFF7C0000FBE00007DF00003EF8006D
:1053D0000007C000003E000001F000000F8007FF42
:1053E0007C003FFBE001FFDF000FFEF8007FF7C00D
:1053F000000FBE00007DF00003EF80001F7C000066
:10540000FBE00007DFFFFFFE7FFFFFF3FFFFFF0F63
:10541000FFFFF83FFFFF00F80000FBE00003EF8014
:10542000000FBE00003EF80000FBE00003EF80002C
:105430000FBE00003EF80000FBE00003EF80000F0D
:10544000BFFFFFFEFFFFFFFBFFFFFFEFFFFFFFBF01
:10545000FFFFFEFFFFFFFBE00003EF80000FBE0039
:10546000003EF80000FBE00003EF80000FBE0000EC
:105470003EF80000FBE00003EF80000FBE00003E9E
:10548000FBEFBEFBEFBEFBEFBEFBEFBEFBEFBEFBD9
:10549000EFBEFBEFBE000001F000000F8000007CBB
:1054A000000003E000001F000000F8000007C0003B
:1054B000003E000001F000000F8000007C000003AF
:1054C000E000001F000000F8000007C000003E00E0
:1054D0000001F000000F8000007DF00003EF80006D
:1054E0001F7C0000FBE00007DFFFFFFEFFFFFFF374
:1054F000FFFFFF0FFFFFF83FFFFF00F80007EF80FF
:1055000000FEF8001FCF8001F8F8003F8F8007F001
:10551000F800FE0F801FC0F803F80F803F00F80767
:10552000F00FFFFE00FFFFC00FFFF800FFFF800F2E
:10553000FFFC00FFFFE00F807F00F803F00F801FEB
:1055400080F801FC0F800FE0F8007F0F8003F8F86F
:10555000001F8F8000FCF8000FEF80007EF8000035
:1055600007C000003E000001F000000F8000007C3A
:10557000000003E000001F000000F8000007C0006A
:10558000003E000001F000000F8000007C000003DE
:10559000E000001F000000F8000007C000003E000F
:1055A0000001F000000F8000007C000003E000001C
:1055B0001FFFFFFEFFFFFFF7FFFFFFBFFFFFFDFF26
:1055C000FFFFE0FC00003F7F00003FBFC0003FDF67
:1055D000F0003FEFFC003FF7FE001FFBFF801FFDC8
:1055E000FFE01FFEFBF81FDF7CFE1FCFBE3F9FC703
:1055F000DF0FEFC3EF83FFC1F7C1FFE0FBE07FE008
:105600007DF01FE03EF807E01F7C01E00FBE006068
:1056100007DF001003EF800001F7C00000FBE0008F
:10562000007DF000003EF800001F7C00000FBE006F
:105630000007DF000003E0FC0001F7F0000FBFC02F
:10564000007DFF0003EFFC001F7FE000FBFF8007F1
:10565000DFFE003EFBF801F7CFE00FBE3F807DF09C
:10566000FE03EF83F01F7C1FC0FBE07F07DF01FC20
:105670003EF807F1F7C01FCFBE007E7DF003FBEFC1
:10568000800FFF7C003FFBE000FFDF0003FEF8001F
:105690000FF7C0003FBE0001FDF00007E01FFFFF55
:1056A00081FFFFFF1FFFFFF9FFFFFFEFFFFFFF7C01
:1056B0000000FBE00007DF00003EF80001F7C0003B
:1056C0000FBE00007DF00003EF80001F7C0000FB98
:1056D000E00007DF00003EF80001F7C0000FBE0049
:1056E000007DF00003EF80001F7C0000FBE000075E
:1056F000DFFFFFFEFFFFFFF3FFFFFF0FFFFFF83F9E
:10570000FFFF00FFFFFF87FFFFFF3FFFFFF9FFFFE6
:10571000FFEFFFFFFF7C0000FBE00007DF00003E23
:10572000F80001F7C0000FBE00007DF00003EF801D
:10573000001F7FFFFFFBFFFFFFDFFFFFFEFFFFFFFD
:10574000E7FFFFFE3E000001F000000F8000007C3C
:10575000000003E000001F000000F8000007C00088
:10576000003E000001F00000001FFFFF801FFFFF50
:10577000F01FFFFFF81FFFFFFE0FFFFFFF07C00036
:105780000F83E00007C1F00003E0F80001F07C00A7
:1057900000F83E00007C1F00003E0F80001F07C085
:1057A000000F83E00007C1F00003E0F80001F07C87
:1057B0000000F83E00007C1F00003E0F80001F0725
:1057C000C0000F83E00007C1FFFFFFFEFFFFFFFFE8
:1057D0003FFFFFFF8FFFFFFFC3FFFFFFE0FFFFFF64
:1057E00087FFFFFF3FFFFFF9FFFFFFEFFFFFFF7C9A
:1057F0000000FBE00007DF00003EF80001F7C000FA
:105800000FBE00007DF00003EF80001F7FFFFFFB55
:10581000FFFFFFDFFFFFFEFFFFFFE7FFFFFE3E0092
:105820007E01F003F80F800FE07C003F83E000FE74
:105830001F0003F8F8000FC7C0003F3E0001FDF055
:105840000007E01FFFFF81FFFFFE1FFFFFF9FFFFC3
:10585000FFEFFFFFFF7C0000FBE00007DF00000020
:10586000F8000007C000003E000001FFFFFC0FFF32
:10587000FFFC7FFFFFF1FFFFFFC7FFFFFE07FFFFFA
:10588000F000000F8000007C000003EF80001F7C10
:105890000000FBE00007DFFFFFFEFFFFFFF3FFFF5D
:1058A000FF0FFFFFF03FFFFF00FFFFFFF7FFFFFFCE
:1058B000BFFFFFFDFFFFFFEFFFFFFF000F800000B6
:1058C0007C000003E000001F000000F8000007C09B
:1058D00000003E000001F000000F8000007C00008E
:1058E00003E000001F000000F8000007C000003EB9
:1058F000000001F000000F8000007C000003E000C9
:10590000001F000000F8000007C000003E0000F883
:105910000001F7C0000FBE00007DF00003EF800023
:105920001F7C0000FBE00007DF00003EF80001F7ED
:10593000C0000FBE00007DF00003EF80001F7C0060
:1059400000FBE00007DF00003EF80001F7C0000F99
:10595000BE00007DF00003EF80001F7C0000FBE034
:105960000007DFFFFFFEFFFFFFF3FFFFFF0FFFFF5B
:10597000F83FFFFF00FE000001F9F8000007E3F028
:1059800000003F0FC00001F81F800007E03F00004B
:105990003F00FC0000FC01F80007E007E0001F806A
:1059A0000FC000FC003F0007E0007E001F8000FCED
:1059B00000FC0003F003F00007E01F80001F807C64
:1059C00000003F03F000007C1F800001F87E000013
:1059D00003F3F000000FCFC000001FFE0000007FA7
:1059E000F0000000FFC0000001FE00000007F8000A
:1059F00000000FC00000003F0000FC001F8003E714
:105A0000C001F8007E7E003F8007E3E003FC007CDD
:105A10003F003FC00FC3F007FC00F81F007FE00FFE
:105A200081F807FE01F81F80FFF01F00F80FBF0389
:105A3000F00FC0F9F03F007C1F9F83E007C1F0F832
:105A40007E007E3F0F87E003E3F0FC7C003F3E07D3
:105A5000CFC003F7E07EF8001F7C07EF8001FFC096
:105A60003FF8001FFC03FF0000FF803FF0000FF82D
:105A700001FF00007F801FE00007F000FE00007FB4
:105A8000000FE00003F000FC00003E0007C0000330
:105A9000E0007800FC0003F7F0003F9FC003F87EB1
:105AA000003F81F803F80FE03F803F81F800FE1FC0
:105AB000C003F9FC000FFFC0003FFC0001FFC00065
:105AC00007FC00001FE00000FF00000FF80000FFCF
:105AD000E0000FFF80007EFE0007F3F8007F0FE07C
